:100000000C9436040C9453040C9453040C94B328AD
:100010000C9453040C9453040C9453040C94530404
:100020000C9453040C9453040C9409310C94DD315A
:100030000C94522B0C9453040C9453040C945304BE
:100040000C9453040C9453040C9453040C945304D4
:100050000C9453040C94F52B0C9453040C945304FB
:100060000C9453040C9453040C9453040C945304B4
:100070000C9453040C9453040C9453040C945304A4
:100080000C9453040C9453040C9453040C94530494
:100090000C9453040C9453040C9453040C94530484
:1000A0000C9453040C9453040C94530468747470AB
:1000B000733A2F2F716D6B2E666D2F0A0029002861
:1000C000003A003B003C003D003E002B6235001E24
:1000D000001F002000210022003F002B002B0014F5
:1000E000001A000800150017004A00FA0039000441
:1000F000001600070009000A004D00F900E1001D8C
:10010000001B00060019000500E0000000E34100AC
:100110000050004F002C642A00E200000041004221
:1001200000430044004500460047004800400023CB
:100130000024002500260027002D002E004B001C67
:100140000018000C00120013002F0030004E000BAE
:10015000000D000E000F003342340031004C00113E
:1001600000100036003700380028002A00654328B8
:10017000002C6552005100E50000005004E7002803
:10018000003A003B003C003D003E001D0101001E06
:10019000001F002000210022003F001C012B04143E
:1001A000001A000800150017004A00FA00010004B8
:1001B000001600070009000A004D00F90001001DAB
:1001C000011B01060119010500E00000000100000B
:1001D0000050004F002C642A00E200000041004261
:1001E000004300440045004600470048004000230B
:1001F0000024002500260027002D002E004B001CA7
:100200000018000C00120013002F0030004E000BED
:10021000000D000E000F003342340031004C00117D
:1002200000100036003700380028002A00654328F7
:10023000002C6552005100E5000000A8002900A82C
:10024000003A003B003C003D000000520035000039
:1002500000FD00FE00FF0000003F0052002B00FBED
:1002600000F700F000F800FC004A00FA003900FA3C
:1002700000F200F100F300F9004D00F900E1001D6B
:1002800000F600F400F5000500E0000000E3410086
:100290000050004F002C642A00E2000000410042A0
:1002A000004300440045004600470048004000234A
:1002B0000024002500260027002D002E004B001CE6
:1002C0000018000C00120013002F0030004E000B2D
:1002D000000D000E000F003342340031004C0011BD
:1002E00000100036003700380028002A0065432837
:1002F000002C6552005100E5000000A8000100013B
:1003000000010001000100010001000100010001E5
:1003100000010001000100010001000100010001D5
:1003200000010001000100010001000100010001C5
:1003300000010001000100010001000100010001B5
:1003400000010001000100010001000000010000A7
:100350000001000100010001000100000001000196
:100360000001000100010001000100010001000185
:10037000000100010001000100010001004A00012C
:10038000000100010001000100010001004D000119
:10039000000100010001000100010001004900010D
:1003A0000001000100010001000100010001000145
:1003B0000001000100010001000000010000000038
:1003C00000000000002A2B280000000000000000B0
:1003D000000000000000000029000000002C1E3476
:1003E00020212224342627252E362D3738271E1F7C
:1003F000202122232425263333362E37381F0405A7
:10040000060708090A0B0C0D0E0F10111213141514
:10041000161718191A1B1C1D2F3130232D350405F2
:10042000060708090A0B0C0D0E0F101112131415F4
:10043000161718191A1B1C1D2F3130354C000000DF
:1004400000000000000000000000000000000000AC
:10045000000000000000000000000000000000009C
:10046000007E0F00D4FFFFFFC70000007800047F6C
:100470003F1F643214643214783C1E1E140A052295
:1004800023252628292A2C2D2F3032333536383A89
:100490003B3D3E4042434547494A4C4E50515355DF
:1004A00057595A5C5E6062646668696B6D6F717300
:1004B0007577797B7D7F81838587898A8C8E909201
:1004C0009496989A9C9E9FA1A3A5A7A8AAACAEAF0C
:1004D000B1B3B4B6B8B9BBBCBEBFC1C2C3C5C6C751
:1004E000C9CACBCCCDCED0D1D2D2D3D4D5D6D7D702
:1004F000D8D9D9DADADBDBDBDCDCDCDCDCDDDDDD4A
:10050000DDDCDCDCDCDCDBDBDBDADAD9D9D8D7D745
:10051000D6D5D4D3D2D2D1D0CECDCCCBCAC9C7C6F2
:10052000C5C3C2C1BFBEBCBBB9B8B6B4B3B1AFAE30
:10053000ACAAA8A7A5A3A19F9E9C9A9896949290D6
:100540008E8C8A89878583817F7D7B7977757371AE
:100550006F6D6B6968666462605E5C5A595755538B
:1005600051504E4C4A4947454342403E3D3B3A3844
:1005700036353332302F2D2C2A292826252322FFE9
:10058000AA7F554047413B353132363C42484C50BA
:1005900055514D49433D37383E444A4E5253544FCE
:1005A0004B453F39332F2E30343A40462827211B04
:1005B00015080500010203040F0B0E0D0A070609BA
:1005C0000C1011121314161718191A1C1D1E1F20B7
:1005D00022232425262A292B2C2D0001010101018B
:1005E00001010101020202020202020202030303EC
:1005F00003030303030404040404040405050505BC
:10060000050606060606070707070708080808097B
:100610000909090A0A0A0B0B0B0C0C0C0D0D0D0E27
:100620000E0E0F0F0F1010111111121213131414BC
:10063000151516161717181819191A1A1B1B1C1D31
:100640001D1E1E1F2020212222232424252626278A
:100650002829292A2B2C2D2D2E2F303132323334BC
:1006600035363738393A3B3C3D3E3F4041424344C2
:1006700045464748494A4C4D4E4F505153545556A4
:1006800058595A5B5D5E5F616264656668696B6C50
:100690006D6F7072737577787A7B7D7E80828385CB
:1006A00087888A8C8E8F91939596989A9C9EA0A20B
:1006B000A3A5A7A9ABADAFB1B3B5B7BABCBEC0C215
:1006C000C4C6C9CBCDCFD1D4D6D8DBDDDFE2E4E7D9
:1006D000E9EBEEF0F3F5F8FAFDFF240355006E00A8
:1006E0006900760065007200730061006C004300D1
:1006F00065006E0074007500720079003200000021
:10070000120341006E006400790043006800690034
:10071000750000000403090409025B00030100A046
:10072000FA0904000001030101000921110100017F
:1007300022400007058103080001090401000203AB
:100740000000000921110100012222000705820397
:100750002000010705030320000109040200010332
:100760000000000921110100012284000705840313
:1007700020000112010002000000084341020002B3
:1007800000010200010660FF0961A1010962150074
:1007900026FF009520750881020963150026FF00D9
:1007A000952075089102C005010902A10185020981
:1007B00001A10005091901290815002501950875F1
:1007C0000181020501093009311581257F950275E6
:1007D00008810609381581257F9501750881060570
:1007E0000C0A38021581257F950175088106C0C065
:1007F00005010906A1018506050719E029E715008D
:1008000025019508750181020507190029EF1500DA
:10081000250195F075018102050819012905950545
:1008200075019102950175039101C005010906A1A9
:1008300001050719E029E7150025019508750181D3
:10084000029501750881010507190029FF15002689
:10085000FF00950675088100050819012905950511
:1008600075019102950175039101C00011241FBE0D
:10087000CFEFDAE0DEBFCDBF11E0A0E0B1E0EAE00B
:10088000FAE602C005900D92A63AB107D9F724E026
:10089000A6EAB1E001C01D92AE31B207E1F70E94B5
:1008A0007F170C94DA340C940000262F811117C0A6
:1008B0008091CE01682F70E090E080E0222351F01B
:1008C0000E94C40647E060E00E94D4240E945B08B6
:1008D00081E008950E94C40647E061E0F5CF8130D1
:1008E000B9F78091CE01682F70E090E080E022237C
:1008F00029F00E94C40647E062E0E6CF0E94C406E9
:1009000047E063E0E1CF8E3A9D4541F4FB018281EF
:10091000882321F08CEA90E00E94C00681E00895CF
:1009200081E008950E948304089508950E9495042B
:100930000895A5E0B0E0EFE9F4E00C943B3449837E
:100940005A833091A90189819A81311119C0662396
:1009500099F0222389F00E94BA0B182F682F898101
:100960009A810E94970B69817A81812F0E9492253A
:100970002596E3E00C9457340E94A80B182FF3CF70
:100980000E94BA0B69817A81F1CFFC01262F408148
:1009900051816281738184810E949904089581E06C
:1009A0000895CF93DF93EC0160E00E94C504BE017F
:1009B0000E949604DF91CF910895E1E0F0E0DF011D
:1009C00002C0AA0FBB1F6A95E2F7BD01DF0102C09A
:1009D000AA0FBB1F4A95E2F76A2B01C0EE0F2A95BA
:1009E000EAF7962F9823961302C08E2B0895E09570
:1009F0008E230895242F462F682F8091CE010E94C8
:100A0000DD040E94F70A08950E948C1308950E9445
:100A10009013089508950E94940A0E940A052FEFEA
:100A200084E39CE0215080409040E1F700C000004A
:100A300008950E940B050E94192C08950E940B0531
:100A40000E942A2C08950F931F93CF93DF938C015C
:100A500061E00E94C504EC01B8010E9420228111CE
:100A600006C080E0DF91CF911F910F910895B801EA
:100A7000CE010E9492048823A1F3B801CE010E9406
:100A8000C127882371F3B801CE010E9484238823F3
:100A900041F3B801CE010E943327882311F3B80136
:100AA000CE010E94C6208823E1F2F80182818823CA
:100AB00061F0CA35FDE5DF0701F158F4C115ECE539
:100AC000DE0791F0CE3DDC4591F0C8010E94900414
:100AD000C9CFCC358DE5D80769F090F0C73ADD4530
:100AE000A1F70E941E05BDCF0E941905BACF0E9432
:100AF0007310F7CF0E94AD0FE8CF0E94B70FE5CF7C
:100B00000E94BB0FE2CF0E942F2B0E9424070E945D
:100B10003C1F08950E9428070E9413200E94342B36
:100B20000895B0E0A0E0E7E9F5E00C943734E82F51
:100B3000F0E0E354FC4FD490282F26952695269577
:100B400030E0F901E35AFB4F0491877010E0082E62
:100B500002C0159507950A94E2F701701127F90173
:100B6000E35BFB4FE490F12C082E02C0F594E79470
:100B70000A94E2F791E0E922FF24F901E35CFB4FDC
:100B8000C491D0E002C0D595C7958A95E2F7C170AF
:100B9000DD270115110519F081EE0E947307E1149C
:100BA000F10419F086EE0E9473078D2D0E945B08F8
:100BB000E114F10419F086EE0E94EA07011511050F
:100BC00019F081EE0E94EA07CD2B19F08CE20E9409
:100BD0005B08CDB7DEB7E7E00C945334EF92FF9299
:100BE0000F931F93CF93DF93EC01162F0AE08881B8
:100BF000882309F454C0813009F04EC089818130C6
:100C000099F47E0122E0E20EF11C8A810E945B08C9
:100C1000E7012196812F815050F3EFE9FFE03197F2
:100C2000F1F700C00000F7CF823041F47E0182E08E
:100C3000E80EF11C8A810E947307EACF833041F4E9
:100C40007E01E2E0EE0EF11C8A810E94EA07E0CF0D
:100C5000843011F02196DDCF2A81229690E080E049
:100C6000AE014F5F5F4F2053330B2A30310548F000
:100C7000019778F2EFE9FFE03197F1F700C000004B
:100C8000F7CF089FB001099F700D1124C901860F8D
:100C9000971F2981EA01E4CF0E949105BACFCDB711
:100CA000DEB7E6E00C94543460E00E94EE0508954F
:100CB000EF92FF920F931F93CF93DF938C01F62E49
:100CC0008AE0E82EF8018491882309F454C0813029
:100CD00009F04DC0E8012196FE018491813091F424
:100CE0002196FE0184910E945B088E010F5F1F4FC9
:100CF0008F2D815038F3EFE9FFE03197F1F700C015
:100D00000000F7CF823039F4E8012296FE01849189
:100D10000E947307EACF833039F4E8012296FE017E
:100D200084910E94EA07E1CF8430F9F6E801229627
:100D3000FE01249190E080E0FE0131962053330BB8
:100D40002A30310548F0019780F2EFE9FFE0319752
:100D5000F1F700C00000F7CFE89EA001E99E500D1A
:100D60001124C901840F951F2491EF01E5CF0E9442
:100D70009105E801BACFCDB7DEB7E6E00C94543464
:100D800060E00E9458060895CF92DF92EF92FF92A2
:100D90006C01EE24FF2420E0C114D104E104F1042D
:100DA00019F0C701B60120E1C72ED82EE92EFF2485
:100DB000C114D104E104F10419F0285FC701B601A0
:100DC0006B017C0154E0F694E794D794C7945A954C
:100DD000D1F7C114D104E104F10419F02C5FC7016B
:100DE000B6016B017C0142E0F694E794D794C79476
:100DF0004A95D1F7C114D104E104F10419F02E5F32
:100E0000C701B6019695879577956795672B682BEF
:100E1000692B09F02F5F822FFF90EF90DF90CF902A
:100E2000089508950E941107089581E008950E9491
:100E3000150708950895CF93C82F0E9412078C2F8D
:100E40000E941707CF91089580E00E941B07089524
:100E50000E94D9290E941B0708950E94D9299091C8
:100E6000A801981721F08093A8010E941B070895FC
:100E7000ABE0B0E0EEE3F7E00C943C344F835887EE
:100E800069877A878B8761110E94F80E1E821D8206
:100E900085E0FE013796DE01119601900D928A954C
:100EA000E1F78C819D81892B61F449815A816B81A5
:100EB0007C818D819E810E94210E2B96E2E00C9414
:100EC000583489819A8189238F3F79F3CE01019625
:100ED0000E94CF048111E9CFF0CFFC018081918184
:100EE0000E94E70B0895CF93C82F8823C9F082385A
:100EF000C9F40E94D92981FD13C089E30E94B00E74
:100F00000E94190F2FEF81EE94E021508040904015
:100F1000E1F700C0000089E30E94B80E0E94190F9B
:100F2000CF9108958338A1F40E94D92980FDF8CF8C
:100F300083E50E94B00E0E94190F2FEF81EE94E01E
:100F4000215080409040E1F700C0000083E5E4CFED
:100F50008438A1F40E94D92982FDE2CF87E40E945F
:100F6000B00E0E94190F2FEF81EE94E021508040C7
:100F70009040E1F700C0000087E4CECF8CEF8C0FEB
:100F8000813A90F46C2F80910001909101010E94B0
:100F9000552A882329F08C2F0E94B80E0E94190F21
:100FA0008C2F0E94B00EBACF80E28C0F883048F4AC
:100FB000C77081E001C0880FCA95EAF70E94DB0E76
:100FC000ADCFC03F08F4ACCF8C2F0E9403180E9415
:100FD000D618A6CF882309F455C0823879F40E9428
:100FE000D92981FF4FC089E30E94B00E0E94190FDA
:100FF00089E30E94B80E0E94190F0895833859F4AE
:101000000E94D92980FF3EC083E50E94B00E0E9455
:10101000190F83E5EECF843859F40E94D92982FF55
:1010200031C087E40E94B00E0E94190F87E4E1CF1F
:101030009CEF980F913AE8F290E2980F983050F4B4
:10104000877091E001C0990F8A95EAF7892F0E9475
:10105000E10ED1CF9BE5980F933028F490E080E02B
:101060000E94152A089598E5980F973128F490E08A
:1010700080E00E942B2A0895803F20F00E945D1896
:101080000E94D61808951F93CF93DF93182FEB017A
:101090000E947307209739F4812F0E94EA07DF919D
:1010A000CF911F9108958FE99FE00197F1F700C05C
:1010B00000002197EFCF70E060E0893311F460E524
:1010C00070E00E9443080895882321F00E94DB0EFF
:1010D0000E94190F0895882321F00E94E10E0E94BA
:1010E000190F0895B0E0A0E0E8E7F8E00C9435347B
:1010F0006C01D62FC72FFC011281F580F2949FE07E
:10110000F9220E94D10EE82E8823B9F0E12E112396
:10111000A1F08C2F807F803421F080E28D0F883009
:10112000D0F08091EB0282FF16C082E00E947C0F1B
:101130000E94D10E91E0E82EE926BC2EB2948FE0F9
:10114000B822FBE0FB1508F468C0EB2DF0E0E45298
:10115000FB4C0C94EE33E12CF0CF0C2F0F70C07FC2
:1011600011F00295007F112399F0002359F080E2DD
:101170008D0F883010F0D11107C0802F0E94DB0E38
:101180000E94190F8D2F41C0802F0E94EB0EF8CFC7
:101190008D2F0E94EA07002309F43FC080E28D0FE3
:1011A000883010F0D11104C0802F0E94E10E03C0DE
:1011B000802F0E94F10E0E94190F2FC00C2F0F706C
:1011C000C07FC03211F00295007FDD2381F0D13065
:1011D00009F463C0112309F46DC0FF2009F463C052
:1011E000F601858180FFCECF8F7085835CC08091B2
:1011F000EB0282FD33C0112359F0002329F0802F28
:101200000E94DB0E0E94190F80E00E94730705C048
:1012100080E00E94EA070111C7CFEB2DE850FF0BD9
:10122000349720F40E94D9290E941B07EE2089F0F0
:101230000E94CD0E80FD0DC0F60112820E94C70EE5
:101240000E940B0BC6010E945C0A0E94C70E0E94FE
:10125000170BCDB7DEB7E9E00C945134112389F0B8
:10126000F11006C00E94FB0E802B0E946408D5CFAF
:1012700021E0F212F7CF0E94FB0E802B0E94020F9A
:10128000CCCFF11006C00E940F0F802F0E946B0878
:10129000C4CF31E0F31609F2F6CF112331F085E027
:1012A0008F1508F4BACF802FE0CF94E09F1508F493
:1012B000B4CFEBCFFF2049F3D93349F4FFEF27EE4A
:1012C00033E0F15020403040E1F700C000008D2FA6
:1012D0000E94EA07A2CF8D2F112329F00E94031844
:1012E0000E94D6189ACF0E945D18FACF8C2F837077
:1012F00079F5111192CF4D2F429546954770440FC5
:10130000440F8D2F8F70042E01C0880F0A94EAF7C6
:101310002D2F2071D4FF07C02FE030E001C0220F35
:101320004A95EAF72095C695C695C370822BC230C0
:1013300049F058F4C13019F00E94E50A6ECF0E94BE
:10134000DF0A6BCF0E94EB0A68CF0E94DC0A65CFF0
:101350008695112311F08C2F8170882309F45DCFBD
:101360004D2F429546954770440F440F8D2F8F7037
:10137000042E01C0880F0A94EAF72D2F2071D4FFA4
:1013800007C02FE030E001C0220F4A95EAF7209510
:10139000C695C695C370822BC23049F058F4C1304F
:1013A00019F00E94360B39CF0E94300B36CF0E94C5
:1013B0003C0B33CF0E94F70A30CFCF70112329F0B6
:1013C0008C2F0E940B0B8D2F50CF8D2F0E946B08FE
:1013D0008C2F0E94170B21CFD23F51F160F4D03FE8
:1013E000B9F0D13F81F0112309F449C0F110CACE00
:1013F0008C2F8F7121C0D33F11F1D43FA1F7809181
:10140000EB0282FD26C08C2F8F71112311F314C0C3
:10141000112349F084E08F1508F4FFCE8C2F8F71D3
:101420000E94240BFACE95E09F1508F4F6CEF6CF75
:101430008C2F8F711111CDCF0E940B0BEECE11238B
:1014400029F08C2F8F710E94020BE7CE0E94FE0ABA
:10145000E4CE112349F0CF718C2F0E940B0B63E077
:101460008C2F0E945E0FD9CE81E00E947C0FE1E0BC
:10147000EF1508F0D2CE82E00E947C0FCECEF110A4
:101480001BCF8C2F8F71A5CF0F931F93CF93DF931B
:10149000EC01688179818A810E94F20B8C010E94A3
:1014A000420B0E94DB0AB801CE010E947208DF9154
:1014B000CF911F910F910895CF93DF93EC018B8112
:1014C0009C81892B29F08881998189238F3F51F450
:1014D000DF91CF910895CE010E94440ACE010E946F
:1014E000D104F6CFCE010E9423058111F4CF0E94D2
:1014F000D10E882369F38A81882351F38091EB020E
:1015000082FFE6CF82E00E947C0FE2CF0E94F80EBD
:101510000E94190F0E94F2180E94D61808950E9486
:10152000C00E0E94860A08950E94E80E0E948F0A4B
:10153000089592959F70963091F058F4925F9F7045
:10154000923058F4803F19F030F4883E30F481E056
:1015500008959A5FF4CF843FD1F380E00895883EE8
:10156000B0F3813FD1F7F3CFFC01808191810E94DC
:10157000E70B0E94990A0895A5E0B0E0E2ECFAE0DA
:101580000C943C342596E2E00C945834A6E0B0E08C
:10159000ECECFAE00C943C342696E2E00C945834DF
:1015A00008950E94D00A08950E94D10A8093CF0125
:1015B0000E94860A089508950E94D40A0895909181
:1015C000CF01892B0E94D40A08959091CF018923DD
:1015D0000E94D40A08959091CF0189270E94D40ACD
:1015E00008950E94D00A08950E94F10A08950E9469
:1015F000F40A8093CE010E94860A089580E00E943A
:10160000F70A089591E001C0990F8A95EAF7892FAA
:101610000E94F70A089521E030E001C0220F8A9568
:10162000EAF78091CE01822B0E94F70A089521E00B
:1016300030E001C0220F8A95EAF720958091CE0113
:1016400082230E94F70A089521E030E001C0220FB2
:101650008A95EAF78091CE0182270E94F70A0895C1
:101660009091CE01892B0E94F70A08959091CE01A6
:1016700089230E94F70A08959091CE0189270E943C
:10168000F70A08950895262F277091E001C0990F59
:101690002A95EAF723E0769567952A95E1F7FB010D
:1016A000EE0FFF1FE60FF71FE40FF51F50E040E0BD
:1016B000682F70E08191DF0111979B01042E02C019
:1016C000369527950A94E2F721702195282729233A
:1016D00028272C934F5F5F4F4330510559F70895EA
:1016E000A82FA77023E0969587952A95E1F7FC012E
:1016F000EE0FFF1FE80FF91FE60FF71F50E040E065
:1017000080E0219130E00A2E02C0369527950A9498
:10171000E2F721703327042E01C0220F0A94EAF762
:10172000822B4F5F5F4F4330510559F70895262FA5
:101730009C3068F4883058F438E0939FB00111244D
:10174000680F711D4AEA51E0822F0E94430B0895F1
:101750009C3070F4883060F448E0949F900111242C
:101760006AEA71E0820F932F911D0E94700B089519
:1017700080E00895CF92DF92FF920F931F93CF9353
:10178000DF936C010091CE018091CF01082BC7E05F
:10179000D0E010E0FC2EC8010C2E02C09595879574
:1017A0000A94E2F780FD0CC02197A0F7F12C8F2D51
:1017B000DF91CF911F910F91FF90DF90CF9008950F
:1017C000B6018C2F0E942A12019771F3F0CFCF93AC
:1017D000DF93EC010E94BA0BBE010E942A12DF9136
:1017E000CF9108951F93CF93DF93EB019091A901BF
:1017F000992339F0CB010E94E70BDF91CF911F9124
:101800000895882369F0CB010E94BA0B182F682F26
:10181000CE010E94970BBE01812F0E942A12EDCFAC
:10182000CB010E94A80B182FF6CF1F93CF93DF9305
:10183000C091D00116E08091D1018C1304C0DF91DA
:10184000CF911F910895D0E01C9FF0011D9FF00DD6
:101850001124EE52FE4F4081518162817381848157
:1018600095810E94C60A2196C770E5CF4091020279
:10187000509103026091040270910502809106026A
:10188000909107020E94C60A08951F93CF93DF9399
:1018900080910702807F09F049C08091040288236B
:1018A00009F444C08091D001C091D101609102023D
:1018B00070910302A0910502B0910602D62FD723A2
:1018C00016E0C81799F190E0109711F0DF3F19F476
:1018D00001968770F6CF189F9001199F300D112443
:1018E000F901EE52FE4F41814713F2CF408146137A
:1018F000EFCF42814111ECCF438154814A1B5B0BF6
:10190000483C510528F7809107028F7080618093D1
:101910000702F901E952FE4F80818F708061808358
:1019200082E092E00E945C0A0E94150CDF91CF9148
:101930001F910895A1E1B0E0E0EAFCE00C9434349A
:101940008C0185E0F801DE011D9601900D928A95CB
:10195000E1F7F801E28082E0C82E82E0D82E6091A3
:101960000502709106026115710509F44EC190914E
:10197000020220910302892F82238F3F09F445C17F
:1019800040815181A380B480F0900402F501E61BF0
:10199000F70BFF2009F4EAC080910702382F307F4F
:1019A000E83CF10508F0A3C031116DC0FE2C2513F1
:1019B00016C0941314C0E11012C08F708061809320
:1019C00007020E94360CC6010E945C0A8091070241
:1019D000F80185838F2D6196EAE00C945034A114B0
:1019E000B10429F0842F85238F3F09F027C180E0BF
:1019F000F82FF170DF2E80FF3CC08091D001209144
:101A0000D10136E0821315C04D875E878D859E8596
:101A10000E94E70B292F22952F702230F0F02430FE
:101A200018F59F70F1F0F8019581907FD1F4D12CD9
:101A30001EC090E0389FF001399FF00D1124EE5246
:101A4000FE4F6181651306C06081641303C062812B
:101A5000E6120FC001968770D5CF9F7011F08823D2
:101A600031F3805E883018F3C8010E945C0AFD2CB7
:101A7000B1CFEE2009F4AECF809107028160809350
:101A80000702F12CA7CF251306C0941304C0F80158
:101A9000EE2009F487C0C8010E94B40A882319F116
:101AA000EE2009F180910702803270F0209102024D
:101AB0003091030238872F831986BB86AA868C87CC
:101AC000CE0107960E945C0A86E0F801A2E0B2E02F
:101AD00001900D928A95E1F70E94450C0E94360C08
:101AE000FF24F39477CFC8010E945C0AF9CF31112B
:101AF00013C07A2DB98AA88A6E2D89890E94BC0AE2
:101B000082E092E00E945C0A86E0F60111928A95DA
:101B1000E9F70E94360CB5CF25130FC094130DC002
:101B2000E1100BC0F8018583C8010E945C0A86E0C1
:101B3000F60111928A95E9F74DCFC8010E94B40AC7
:101B4000882389F2EE2079F280910702803208F42E
:101B5000BBCF20910202309103023A8329831B827A
:101B6000BD82AC828E83CE010196ACCFE83CF105FC
:101B700008F03EC0FE2CEE2009F4B5CF25132AC094
:101B8000941328C08091070280FD1BC0982F907F7E
:101B9000C1F0F8018583903F31F0982F907F905FDE
:101BA0008F70892B8583C8010E945C0A86E0F8014A
:101BB000A2E0B2E001900D928A95E1F70E94360C06
:101BC00009CF86E0F801A2E0B2E001900D928A957B
:101BD000E1F700CFC8010E94B40A811175CF80914E
:101BE0000702816080930702C8010E945C0AF2CE5E
:101BF0007A2DB98AA88A6E2D89890E94BC0A86E04E
:101C0000F60111928A95E9F7D9CFEE2009F46BCF4E
:101C1000C8010E94B40AF82E882309F464CF86E034
:101C2000F801A2E0B2E001900D928A95E1F782E01E
:101C300092E00E946D070E94450CC0CF81E08E2586
:101C4000D7CEACE0B0E0E7E2FEE00C943B344F834B
:101C5000588769877A878B879C87CE0107960E9471
:101C60009A0C882369F08A859B85892B39F04F81EE
:101C70005885842F85238F3F09F06BC016E05FC025
:101C800086E0FE013796DE01119601900D928A954D
:101C9000E1F78A859B85892B89F38F819885892334
:101CA0008F3F61F32091D10130E0C9010196877027
:101CB00099274091D0014817190671F40E94940A9F
:101CC0001092D1011092D00186E0E2E0F2E0DF0153
:101CD0001D928A95E9F7D2CF96E0929FD001939F0B
:101CE000B00D1124AE52BE4FFE01319601900D92FF
:101CF0009A95E1F78093D1010E94150CBFCF819F87
:101D0000C00111248E529E4F0E949A0C8823E9F044
:101D1000E091D0011E9FF0011124EE52FE4F408150
:101D2000518162817381848195810E94C60A80916C
:101D3000D00190E00196877099278093D00180911F
:101D4000D0019091D1018913DACF2C96E3E00C9465
:101D5000573469857A858B859C850E94C60A8ECF0B
:101D6000682F80910001909101010E94D52A089569
:101D7000682F80910001909101010E94E32A08954B
:101D800080910001909101010E94F12A08958091B3
:101D900028028595859585950895809128028770FC
:101DA000089590912802977081E009F480E00895E9
:101DB00080914B02089590914B02892B80934B02A6
:101DC0000895809590914B02982390934B0208952B
:101DD00010924B02089590914A02892B80934A02F7
:101DE0000895809590914A02982390934A0208950D
:101DF00010924A02089580912902089508950E9440
:101E0000FE0E08959091EB0292FF08C09091290276
:101E1000981721F0809329020E94FF0E0895809167
:101E20002902882329F01092290280E00E94FF0EE7
:101E30000895CF93DF93E0910001F091010180912B
:101E40004B028083E0910001F0910101808190912B
:101E50004A02892B808390912902992381F0E09195
:101E60000001F09101018081892B80838091000124
:101E7000909101010E94412A81110E940F0FC0918F
:101E80000001D091010140E250E068E072E0CE0133
:101E90000E947C34892B59F080E2FE01A8E0B2E078
:101EA00001900D928A95E1F7CE010E94ED29DF9114
:101EB000CF91089508950E945A0F08959091EB02D2
:101EC00092FF11C098E0899F90011124622B6093CA
:101ED00028020E940B0B8091280285958595859597
:101EE0000E945B0F08950E940B0B08951092280228
:101EF00080E00E945B0F08959091280280958923CD
:101F000080932802282F277091F4282F082E000C88
:101F1000330B9217130659F09091EB0292FF07C012
:101F20008595859585950E94170B0E94760F0895DB
:101F30009091EB0292FB222720F9281769F080FB91
:101F400092F99093EB028091EA029091EB020E9449
:101F5000EA0F82E00E947C0F08958091EB0282FBE1
:101F6000882780F991E089270E94980F089581E0E1
:101F70000E94980F089580E00E94980F08956FEFD7
:101F80007FEF90E080E00E94C434089590E080E00C
:101F90000E94A034883E9E4F19F40E94BA210895F1
:101FA00080E0089582E090E00E949234089583E0FA
:101FB00090E00E9492340895CF9384E090E00E94D4
:101FC0009234C82F82E290E00E949234982F8C2F96
:101FD000CF910895CF93C92F682F84E090E00E949D
:101FE000A6346C2F82E290E00E94A634CF9108952F
:101FF000AB01BC018FE090E00E94B8340895AB01C2
:10200000BC0183E190E00E94B834089560E070E084
:10201000CB010E94FF0F089560E070E0CB010E94A9
:10202000F80F0E940610089568EE7EEF90E080E0C1
:102030000E94C43460E082E090E00E94A63460E038
:1020400083E090E00E94A6341092CF0160E084E02B
:1020500090E00E94A63464E082E290E00E94A63400
:1020600060E085E090E00E94A63460E086E090E0C9
:102070000E94A6346FEF87E090E00E94A63440E013
:1020800050E0BA0188E090E00E94B83460E08DE052
:1020900090E00E94A63440E050E0BA0188E190E070
:1020A0000E94B83460E087E190E00E94A63440E0EE
:1020B00050E0BA018CE190E00E94B83470E060E03A
:1020C00080E290E00E94C43440E050E0BA0188E130
:1020D00090E00E94B83480E00E94D3210E94032245
:1020E0000E940C1008950E9414100895682F8EE02D
:1020F00090E00E94A63408950E94BE2B6093600277
:1021000070936102809362029093630260935C0219
:1021100070935D0280935E0290935F0208950E9427
:10212000BE2B609360027093610280936202909371
:102130006302609358027093590280935A029093FD
:102140005B020895089508950E94A31008950895CC
:102150000E94A710089584E593E10E94CF290E9470
:10216000A2100E94A41008950E94341508950895A5
:1021700008950E94B7100E94B81008950E9470132D
:102180000E941A0708950E94A92B0E9409130E9419
:1021900013220E9451150E9494140E94BE100E94A6
:1021A0006C230E94D71F0E9451260E945B150E943B
:1021B000A8100895AAE0B0E0E0EEF0E10C9433340A
:1021C0000E94B714C82E81110E947C108CE4A82EA6
:1021D00082E0B82E10E000E0902E802F0E94931332
:1021E000E82EF501F1905F01F816B9F180916402D3
:1021F00081FD0E9499138F2D8E25D12CFF24F394FD
:10220000982F9F2129F10E94B410882399F0DE8233
:102210009F82EF2081E009F480E088870E94B22B42
:102220008160782F9A8789874E815F8168858A854A
:102230000E943807F801E45BFD4F8081F826F082A8
:1022400081E0C11001C080E02A96EBE00C944F348D
:10225000D394FF0CF8E0DF12D3CF0F5F1F4F0C3089
:10226000110509F0B9CF8FEF89838A831B820E9401
:10227000B22B8160782F9D838C8349815A816B8139
:102280008D810E943807DCCF0E94DA100E9434153D
:102290000E941D200E947E2681110E948F100E94A4
:1022A00014190E942D070895CF93DF930E942F12D7
:1022B000EC01811522E5920778F5811531E5930748
:1022C00008F098C08F3F910509F0B8F4803F910560
:1022D00008F06FC0853A910540F48430910548F4C8
:1022E000019739F0D0E0C0E004C0805E9109089702
:1022F000C8F7CE01DF91CF910895811540E594078D
:1023000008F05CC0C11580E4D80708F054C0C115BE
:1023100090E2D90770F3E6CF811526E5920718F50C
:10232000811535E5930708F07DC0811544E59407D4
:1023300008F073C0982F969596959E0123703327C9
:10234000C115D34508F45BC0C1E0D0E002C0CC0F9A
:10235000DD1F2A95E2F730E2939FC0011124C82BBC
:10236000D92BDA68C6CFC1159AE5D90778F4C1151B
:1023700029E5D20708F060C0C11538E5D30708F495
:10238000B1CFDC2FCC27C06FD06AB3CFCE0190562F
:102390008115904208F0A6CF8D2F8F710E94C61232
:1023A00090E0982F882788279F719C012C2BE901AA
:1023B00041C0D0659ECFDF70D06A9BCFE4E0969598
:1023C0008795EA95E1F783702C2F26952695237043
:1023D00090E2299F90011124382B8C2F8370C1E04B
:1023E000D0E002C0CC0FDD1F8A95E2F7C22BD32BC1
:1023F000DC687FCFD82FCC27C16FD06A7ACFC1E0FD
:10240000D0E002C0CC0FDD1F2A95E2F720E2929FB8
:10241000C0011124C82BD92BEBCFD82FCC27C46FE8
:10242000D06A67CF0E94C612C82FD0E0DC2FCC271D
:10243000CC27DF71D0625DCF8C2F8F700E94C612C7
:1024400034E0D695C7953A95E1F7CF709C2FEC0113
:10245000D0694FCF0E9492250E945411089582386E
:102460009105B1F1B0F48133910509F475C048F4D8
:102470008932910509F469C08A32910509F473C063
:1024800008958533910509F459C08933910501F107
:102490000895833E9105A9F138F4803E9105F9F045
:1024A000823E910549F10895863E9105A9F1873E46
:1024B0009105C9F1843E910519F52091EB0221FFA8
:1024C0001FC08091EA0284FD14C087EE90E0089559
:1024D0002091EA022370A1F080EE90E0089520910F
:1024E000EA0220FD47C03091EB0230FF09C024FF13
:1024F00044C090E080E004C02091EA0222FDF7CFC2
:1025000008952091EA0222FD3BC03091EB0230FD9C
:10251000E3CF24FFF5CFEDCF2091EA0223FFF0CFE8
:1025200024FDE7CFD2CF2091EA0223FD2CC03091C9
:10253000EB0231FFEECF84EE90E008952091EA02A5
:1025400025FFDECF89E290E008952091EA0225FF81
:10255000D7CF85E390E008952091EA0226FFD0CFFF
:102560008AE290E008952091EA0226FFC9CF81E334
:1025700090E0089589E390E0089583EE90E0089557
:1025800082EE90E0089586EE90E008959091EA0240
:1025900092FF06C0282F28712830F9F4877F8460C5
:1025A00093FF06C0282F28712831F1F4877E8461BB
:1025B0002091EB0220FF06C0382F38713830D9F453
:1025C000877F816021FF06C0282F28712831D1F430
:1025D000877E816194FD877E0895282F24712430A1
:1025E000F9F68B7F8860DCCF282F2471243101F726
:1025F0008B7E8861DDCF382F3171313019F78E7FB6
:102600008860E0CF282F2171213121F78E7E8861EB
:10261000E1CF1092E6021092E7021092E8021092C7
:10262000E9020895CF92DF92EF92FF926B017C0155
:102630000E94341581110EC00E94BE2BC61AD70A03
:10264000E80AF90AC092E602D092E702E092E802B4
:10265000F092E902FF90EF90DF90CF9008950F93F2
:102660001F930E943415882329F00E94BE2B1F91CE
:102670000F9108950E94BE2B0091E6021091E7028F
:102680002091E8023091E902600F711F821F931FB1
:10269000EECF0E943415882319F00E94B22B0895C2
:1026A0000E942F13CB01089580E008950E94BF0F70
:1026B00008950E94B7148FE39CE90197F1F700C0D9
:1026C00000000E94B71480E00E94931380FF04C0B2
:1026D0000E9456130E94192C08950E9459130895C0
:1026E0000E94C60F811102C00E9473100E94D20F77
:1026F000809364020E94DC0F9093EB028093EA02C5
:102700000E946D130E94D70F0E94DC0A8091CE01B7
:102710000E94F40A089508950E948B130895089565
:102720000E948F130895E82FF0E0E750FD4F80815D
:102730000895089580EA8A95F1F7089500C00895F4
:102740000E949A13089508950E94A3130895A6E085
:10275000B0E0EDEAF3E10C9438340E943415F82E21
:1027600060910503882309F440C086E0E82E8E01BD
:102770000F5F1F4FF8018E2D11928A95E9F7862F72
:1027800090E0B80187509D4F0E9469158823B9F0E9
:102790008091EC0290E046E050E0B80187509D4FF8
:1027A0000E947C3421E020936502892B91F4F12C66
:1027B0000E9407058F2D2696E6E00C9454348091F4
:1027C00065028823A1F3F8011192EA94E9F71092C7
:1027D0006502A091EC02B0E0A750BD4F86E0F80181
:1027E00001900D928A95E1F7E3CF70E067507D4F3D
:1027F0008091EC0290E087509D4F0E94F0150E945E
:10280000A413D8CFF894E82FE295EF70F0E031A14F
:10281000282F2F7081E090E001C0880F2A95EAF7F9
:10282000982F9095932391A392A1892B82A37894BA
:102830000895CF93DF93C1E5D1E089918F3F11F0E7
:102840000E94021481E0C935D807B9F7C9E5D1E083
:1028500089918F3F11F00E94021481E0CF35D80793
:10286000B9F7DF91CF910895B0E0A0E0EAE3F4E199
:102870000C9436347C01162F042FC62FD0E0CE01E5
:102880008F5A9E4F6C01EC0128812F3F09F444C000
:10289000F894E22FE295EF70F0E031A12F7081E023
:1028A00090E001C0880F2A95EAF7932F982B91A307
:1028B00092A18095892382A378940E949E13A9E512
:1028C000B1E0F7014FE551E0F12C602F60959D914B
:1028D00080819F3F31F1292F22952F7030E0E9014F
:1028E00028A130E09F7002C0359527959A95E2F7B0
:1028F00020FD17C0802B8083FF24F39431964A1764
:102900005B0729F7F60180818F3F11F00E940214C6
:102910006F2D812F0E94A013CDB7DEB7E8E00C9495
:10292000523486238083EACF809102018091020194
:1029300096E0811190E09093050386E0891B8093D7
:10294000EC020E9419148CE0E9EFF2E0DF01982F0D
:102950001D929A95E9F7EDEEF2E0DF011D928A955E
:10296000E9F786E00E94FE140E9404050895ACE099
:10297000B0E0EDEBF4E10C9438348E010F5F1F4FA3
:102980008CE0F80111928A95E9F7F12CEE24E3949A
:102990004E2D6F2DC8010E943414F394EE0CF8E014
:1029A000FF12F6CF4CE050E0B8018DEE92E00E94AD
:1029B0007C347C0121E0892B09F420E0E114F1044E
:1029C00041F08CE0F801ADEEB2E001900D928A95F5
:1029D000E1F76091050370E067507D4F46E08DEEB2
:1029E00092E00E94FF1481E090E0E114F10411F400
:1029F0000E94A7132C96E6E00C9454340895FF929D
:102A00000F931F93CF93DF93F82E092F162FD72FF5
:102A1000C42F222349F081E0809368020E94B22BE8
:102A20009093670280936602809168028823A1F0E8
:102A300080916602909167020E94CA2B059760F010
:102A4000EF2DF02FA12FBD2FCE0FDF2FD11DEC17B3
:102A5000FD0739F410926802CDB7DEB7E5E00C94BB
:102A6000553481918D93F3CF80916B02811107C012
:102A70000E948933882351F081E080936B0281E0CA
:102A800090916B02913009F080E0089582E080938C
:102A90006B020E948433F3CF0E94341591E08927A2
:102AA00008950E944C15809302010E9434158111F3
:102AB0000E949F1508950E943415811102C00E9442
:102AC000A215089581E090916C029A3008F080E0A0
:102AD00008950F931F93CF93DF93EC018B018091A7
:102AE0006C028A30B8F4B801CE010E94ED15C82FEF
:102AF000811122C080916C028F3FB9F40E94B22BE9
:102B000090936A02809369028C2FDF91CF911F917D
:102B10000F9108958091690290916A020E94CA2BD8
:102B2000843F914000F7C0E0EFCF8F5F80936C024D
:102B30008A3020F7C1E0E8CF10926C02E5CF0E9406
:102B40006D2808950E9470280895B0E0A0E0EBEA97
:102B5000F5E10C9437347901C82F880FDD0B41154E
:102B60005105A9F0FE0193E0EE0FFF1F9A95E1F7E2
:102B7000ED5FFE4F8181928183599D4F208130E02E
:102B80004217530708F49A01A9010E948934CE0123
:102B90000E945929D82E8823D1F001151105B9F0CA
:102BA00083E0CC0FDD1F8A95E1F7FE01ED5FFE4F5C
:102BB000438150E00417150708F4A801CD5FDE4FEC
:102BC0006C817D8163597D4FC7010E9489348D2DB1
:102BD000CDB7DEB7E7E00C9453340E94091708958F
:102BE0000E942A170895A4E0B0E0E9EFF5E10C9403
:102BF0003A3460918C0270918D0280918E02909196
:102C00008F020E94D92B11E0643671058105910570
:102C100018F10E942F136E5F7F4F8F4F9F4F698374
:102C20007A838B839C8310E000E030E020E044E076
:102C300050E0BE016F5F7F4F84E00E94A515182F02
:102C4000882351F00E94BE2B60938C0270938D02FA
:102C500080938E0290938F02812F2496E4E00C944F
:102C60005634A1E0B0E0E7E3F6E10C943134762E7F
:102C70004A015901680101E010E09E012F5F3F4FBA
:102C800050E040E070E060E00E94A515182F882316
:102C900099F1F40160817181828193810E94D92B25
:102CA000643671058105910500F18701950150E0B9
:102CB00040E070E060E0872D0E94A515B82EB701B6
:102CC000C6010E946D2311E09981981310E01B2129
:102CD00039F00E94BE2BF401608371838283938359
:102CE000812F2196EDE00C944D34B701C6010E946E
:102CF0006D2399818913D9CFA701B601C5010E941F
:102D00008934EECFA1E0B0E0E8E8F6E10C94383485
:102D100000915F0110916001085F1F4FEE24E39462
:102D2000F12C9E012F5F3F4F48E852E063E082E0C4
:102D30000E943116182F882321F0CE0101960E949F
:102D4000EF26812F2196E6E00C945434A6E0B0E003
:102D5000ECEAF6E10C9436346B0100915F011091BE
:102D600060010F5F1F4F86E0E82EF12C9E012F5F60
:102D70003F4F44E852E061E080E00E943116882332
:102D800049F096E0FE013196AEE7B2E001900D9277
:102D90009A95E1F796E0EEE7F2E0D60101900D9208
:102DA0009A95E1F72696E8E00C945234B0E0A0E062
:102DB000ECEDF6E10C9434347C015B016A010E9475
:102DC000621501E010E0882311F00AE010E0C1E094
:102DD000D0E0B501C701F6010995811104C0219623
:102DE0000C171D072CF4CDB7DEB7EAE00C94503475
:102DF000CC9F9001CD9F300D300D112490E080E0EC
:102E000045E34A95F1F70000019682179307C1F751
:102E1000E0CF0F931F93CF93DF93EC018B0146EA32
:102E200056E10E94D616811106C080E0DF91CF9155
:102E30001F910F91089542E856E1B801CE010E941A
:102E4000D616882391F343EF55E1B801CE010E94D5
:102E5000D616ECCFA1E0B0E0E0E3F7E10C943A3411
:102E600000915F0110916001C801019626E0FB010D
:102E7000DC0101900D922A95E1F766E070E00E9476
:102E80006D23F8018083CE0101960E94E42689819A
:102E9000F801808761E070E0CE0101960E946D2309
:102EA000F8018783618572858385948500917A0214
:102EB00010917B0220917C0230917D026017710796
:102EC0008207930751F060937A0270937B0280939C
:102ED0007C0290937D020E9412132196E4E00C94F0
:102EE00056340E94E32D0E94C3100E94F02D0895D5
:102EF0000E94F52D0E9444110E940F2E08950E94F9
:102F00004B2B0E94C92D0E94AB100E9471170E948A
:102F100078170E94B910FBCF8091980280FF0DC0F6
:102F200060912F0170E0660F771F6038710570F5B2
:102F30006115710569F1862F089581FF07C06091C1
:102F40002F0184E0689FB0011124EFCF60912F0121
:102F500082FD0AC0809197028823A9F020912E015A
:102F600060912F01821710F088E0ECCF869FC0019E
:102F7000112433E0880F991F3A95E1F7622F70E032
:102F80000E94B833D2CF68E070E0D5CF8FE70895C4
:102F900081E008958091980280FF0CC060912C011F
:102FA00070E075956795759567956115710549F19F
:102FB000862F089581FF06C060912C0170E0759501
:102FC0006795F3CF60912C0182FD0BC09091960222
:102FD0009923A1F060912B0180912C01961738F074
:102FE000682F70E06038710500F38FE70895899FBE
:102FF000C001112470E00E94B833F4CF61E070E0AA
:10300000D7CF81E00895803F31F40E948C178195DD
:1030100080939C020895813F19F40E948C17F8CF89
:10302000823F31F40E948C17819580939B02089512
:10303000833F19F40E948C17F8CF893F29F40E942E
:10304000CA1780939D0208958A3F21F40E94CA17EF
:103050008195F7CF8B3F31F40E94CA1781958093F9
:103060009E0208958C3F19F40E94CA17F8CF9CE085
:10307000980F953070F4845F990B21E030E001C027
:10308000220F8A95EAF780919A02822B80939A0206
:1030900008958D3F31F48091980281608093980269
:1030A00008958E3F21F4809198028260F7CF8F3F80
:1030B000B9F7809198028460F1CF40919B02803FE4
:1030C00059F480919C0287FF0DC010929C0241111F
:1030D0000BC01092970208C0813F81F480919C023E
:1030E00018169CF3442381F080919D0290919E02DA
:1030F000892B09F05AC0109296020895823F49F434
:1031000047FFF0CF10929B0280919C028111ECCF7F
:10311000E0CF833F19F41416ACF3E4CF90919D02F5
:10312000893F29F41916F4F610929D02DBCF8A3FED
:1031300019F497FFD7CFF8CF90919E028B3F29F4D7
:1031400097FFD0CF10929E02CDCF8C3F19F4191665
:10315000CCF3C8CF9CE0980F953090F4845F990B26
:1031600021E030E0B90102C0660F771F8A95E2F7CF
:10317000CB01809590919A02892380939A02B2CFD5
:103180008D3F31F4809198028E7F80939802AACF70
:103190008E3F21F4809198028D7FF7CF8F3F09F009
:1031A000A1CF809198028B7FF0CF08950E94B22B1F
:1031B0009C0190919B0280919C02982B21F030936E
:1031C00095022093940290919D0280919E02982BEB
:1031D00021F0309393022093920289E992E00E94B9
:1031E000072A089586E0E9E9F2E0DF011D928A9559
:1031F000E9F71092970210929602109298020895A1
:10320000FC01828181110EC0838181110BC08481F8
:10321000811108C091E08581811101C090E0892F62
:103220008170089581E0FCCFA6E0B0E0EAE1F9E129
:103230000C943B3486E0E9E9F2E0DE01119601905E
:103240000D928A95E1F710929B0210929C021092C7
:103250009D0210929E028B819C81892B89F0809126
:103260009402909195020E94CA2BAC019091970212
:103270009923C9F1809130018417150608F440C0E4
:103280008D819E81892B91F0809192029091930281
:103290000E94CA2BAC0190919602992309F471C047
:1032A00080912D018417150608F479C0BE016F5F67
:1032B0007F4F89E992E00E94032B811105C089E9C3
:1032C00092E00E94001981110E94D61886E0FE014A
:1032D0003196A9E9B2E001900D928A95E1F7269620
:1032E000E3E00C945734209191028AE0289F9001EA
:1032F00011242417350720F69F5F9093970202C090
:103300009F3FD1F71B81112359F00E948C179FEF2B
:1033100011160CF491E0899F802D112480939B025B
:103320001C81112359F00E948C179FEF11160CF489
:1033300091E0899F802D112480939C0230919B0203
:10334000332309F49DCF20919C02222309F498CFC6
:1033500045EB3403C0011124992359F090939B024B
:1033600045EB240390011124332339F030939C0260
:1033700087CF81E080939B02F3CF81E080939C0212
:103380007FCF209190028AE0289F9001112424177A
:10339000350708F08BCF9F5F9093960202C09F3F46
:1033A000D1F71D81112359F00E94CA179FEF111602
:1033B0000CF491E0899F802D112480939D021E8141
:1033C000112359F00E94CA179FEF11160CF491E0D7
:1033D000899F802D112480939E0230919D0233237A
:1033E00009F464CF20919E02222309F45FCF45EBBC
:1033F0003403C0011124992359F090939D0245EBA9
:10340000240390011124332339F030939E024ECFD0
:1034100081E080939D02F3CF81E080939E0246CFAE
:10342000EF92FF920F931F93CF93DF93EB01E82F5F
:10343000D1110EC0442321F0F0E0E652FA4FE4919E
:103440006E2F7E2F8E2FCDB7DEB7E6E00C9454346E
:103450000D2F10E0282F30E0442329F026523A4F58
:10346000F901249130E0F6E0CF9FC0011124EFEF85
:10347000F0E0BF010E94A433AB018C2F90E0880FD5
:10348000991FA5E5A49FB001A59F700D1124861B6F
:10349000970B982F990F980FBF01601B710B629FBC
:1034A000D001639FB00D729FB00D11248B2F9D9F93
:1034B000B0011124672F7727EF01C61BD70BBE0180
:1034C000629FE001639FD00D729FD00D11247F0198
:1034D000E91AF108E09EB001E19E700DF09E700DBA
:1034E0001124672F7727E61BF70BE29F8001E39FEC
:1034F000100DF29F100D1124E12F722F4230510553
:1035000099F048F44115510569F04130510581F0B9
:10351000EB2F8D2F07C04430510569F080F0463005
:103520005105B1F76E2F8FCFE22F7B2F812FFACF6E
:10353000E22F7D2FF7CFEB2F822F712FF3CF7B2F31
:10354000822FED2FEFCF41E00E94101A08950895C9
:103550000E94A31A0895CF93DF93762FE901682F75
:10356000842F0E94A81A798368838A83DF91CF9180
:103570000895453608F044E60E94AB1A08958091FC
:103580000603982F9E7F61F481708260809306030A
:1035900080910903853618F084E680930903089525
:1035A0008A34B0F381708864F1CF88E090E00E94A3
:1035B0009A340895CF92DF92EF92FF926B017C01D3
:1035C0000E94BF1AB701A60188E090E00E94B834BB
:1035D000FF90EF90DF90CF90089560910603709177
:1035E000070380910803909109030E94DA1A089555
:1035F000E6E0F3E083E0808311828FEF828384E64C
:103600008383148260817181828193810E94DA1A9E
:1036100008958091060380FF02C08695089580E09A
:10362000089590910A03933018F49F5F90930A03D2
:10363000882351F06091060370910703809108037D
:10364000909109030E94DA1A089581E00E94111BEB
:10365000089590910A03992319F0915090930A03C9
:10366000882351F06091060370910703809108034D
:10367000909109030E94DA1A089581E00E94291BA3
:10368000089580910A03089580930A03662351F0F8
:1036900060910603709107038091080390910903DC
:1036A0000E94DA1A089560E00E94441B08958091F8
:1036B00007030895809108030895809109030895F0
:1036C00070E00E948E210895CF92DF92EF920F93C7
:1036D0001F93CF93DF93CDB7DEB7C250D1400FB663
:1036E000F894DEBF0FBECDBF609135018091060317
:1036F00080FF37C0E4E8F5E09E012F5F3F4F8E0169
:103700000D5F1E4FC901A4914A2F50E0DA01AA0FA4
:10371000BB1FA40FB51FA55FBC4FCD90DD90EC90F3
:10372000D901CD92DD92ED929D013196A017B1079E
:1037300051F720913401B3E02B9F800D911D11248E
:103740000E94601BCE5FDE4F0FB6F894DEBF0FBE47
:10375000CDBFDF91CF911F910F91EF90DF90CF9070
:103760000895809136019091370123E0829FF00106
:103770001124E55FFC4F891708F0BCCF118210823D
:1037800012828F5F3396F7CF9091060390FF0EC0A1
:10379000909136012091370133E0939FF00111247D
:1037A000E55FFC4F921718F00E94641B0895818317
:1037B000608342839F5F3396F5CFA3E0B0E0E3EEF2
:1037C000FBE10C943C349091060390FF0AC09E01EB
:1037D0002F5F3F4F0E94B91A4B8169818A810E94F5
:1037E000C41B2396E2E00C945834CF93DF93EC0192
:1037F000EC81F0E0E158FB4F4491E6E0F3E06281B8
:1038000081810E94DD1B8C818F5F8C83DF91CF9142
:103810000895CF93DF93EC01E6E0F3E0438162810A
:103820008C810E94DD1B8C818F5F8C83DF91CF9117
:103830000895A3E0B0E0EFE1FCE10C943A348C0190
:1038400080919F0281110AC09E012F5F3F4F44E685
:103850006FEF0E94B91A8A8180939F02F8016481F8
:10386000613069F080919F0240E0662361F040E0A2
:10387000623011F440919F0280E060E004C06091EA
:103880009F0240E080E00E94C41BF801848190E028
:10389000019663E070E00E94B83384832396E4E0ED
:1038A0000C945634A3E0B0E0E8E5FCE10C94353428
:1038B000082FD62EE42EC22E9091060390FF29C029
:1038C000E92FE695AE2FB0E0AF59BE4F8C918093B3
:1038D000AB029E7F923009F59E012F5F3F4F802FF4
:1038E0000E94B91A4B8169818A810E94C41B00938E
:1038F0000703D0920803E0920903CC2051F06091B5
:1039000006037091070380910803909109030E94B8
:10391000DA1A2396E9E00C945134823019F4E090DD
:103920000903E5CF863019F400910703E0CF893011
:10393000D9F38931E1F6E9516E2F6170B62EE69523
:10394000F0E0E158FA4F1491F12C60913801F6162D
:1039500018F00E94641BCBCFF19EC001112470E0CF
:103960000E94A433802FB11014C0860F209136011D
:10397000622F6F0D7727771F9B01220F331F260FB2
:10398000371F255F3C4F4E2D6D2D0E94B91AF394C1
:10399000DCCF861BEBCFE6E0F3E09181282F43815B
:1039A000628188E0890F0E94521C089581E00E9484
:1039B000CB1C0895E6E0F3E09181282F43816281DA
:1039C00088EF890F0E94521C089581E00E94DA1C42
:1039D0000895E6E0F3E0628128E0620F08F46FEFFB
:1039E000282F438181810E94521C089581E00E940A
:1039F000E91C0895E6E0F3E0628128E0621B08F428
:103A000060E0282F438181810E94521C089581E04B
:103A10000E94FA1C0895E6E0F3E0438128E0420F9B
:103A200008F44FEF282F628181810E94521C089573
:103A300081E00E940B1D0895E6E0F3E0438128E059
:103A4000421B08F440E0282F628181810E94521CB1
:103A5000089581E00E941C1D089520E00E94521CE0
:103A60000895EF92FF921F93CF93DF93EC0110E044
:103A7000EE24EA94F12C60913801161770F00E9440
:103A8000641B9A818C8190FF27C08F5F8C83DF91AC
:103A9000CF911F91FF90EF90089520913601422F12
:103AA000410F5527551FCA019A01220F331F280FB6
:103AB000391F255F3C4F70E0C7010E94B833962F35
:103AC0008C814091090360910803199F800D112496
:103AD0000E94B91A1F5FCFCF8150D8CFB0E0A0E0CD
:103AE000E4E7FDE10C943434FC0182810FEF80FFA8
:103AF00001E010E046E5A42E80913801181798F0F7
:103B00000E94641B8091A102013009F04FC0811115
:103B100002C08091380181508093A102CDB7DEB7F9
:103B2000EAE00C945034C0913601C12ED12CCC0D5A
:103B3000DD2DD11DCE01880F991FC80FD91FC55F7C
:103B4000DC4F198218821A8234E0E32EF12CB12C5A
:103B50008091A1028B0D87351CF16A2D0E9496334E
:103B6000892F082E000C990BC816D90691F4809164
:103B700009038E9DA0018F9D500D112455954795E9
:103B8000559547959E0160910803809107030E9417
:103B9000B91AB00EF1E0EF1AF108D1F61F5FACCF01
:103BA00087FFDFCF90913801890FDBCF90E001963E
:103BB0006091380170E00E94B833AECF0F931F932D
:103BC000CF93DF93809136019091370123E0829F5C
:103BD000F0011124E55FFC4F891740F1C0E0D3E00C
:103BE00060913801C61740F10E94641B2091320198
:103BF0008091A002820F8093A00290913301920FD6
:103C000090933301191654F4082E000C990B40912F
:103C100038014150550B841795071CF021952093CE
:103C20003201DF91CF911F910F910895118210827F
:103C300012828F5F3396D0CF0C2F10E070E0C80156
:103C40000E94B83320913601820F482F50E0209116
:103C5000A002022E000C330B02171307BCF02091B8
:103C60003301022E000C330B201731077CF08D9F9F
:103C700090011124255F3C4F409109036091080396
:103C8000809107030E94B91ACF5FAACFFA01EE0F05
:103C9000FF1FE40FF51FE55FFC4F118210821282B7
:103CA000F3CFB0E0A0E0E7E5FEE10C943234EC01A4
:103CB0004C81042F10E09801D8010E9403349B012D
:103CC000AC010E9419344B015C01E0E2F0E0E01B22
:103CD000F10BA5E5B0E0AC019B010E9419346B012A
:103CE0007C019F01DF010E94FB339B01AC010E941C
:103CF00024349B01AC01280D391D4A1D5B1DC701F1
:103D0000B6010E94CC33F22E822F90E039E23F15AB
:103D100020F143E0249F9001112435952795122F1F
:103D2000109500E085E5E82EEF188091380108171E
:103D300018F10E94641B9C8181E0992319F0903254
:103D400019F48FEF8093310180913101890F8C83B9
:103D5000CDB7DEB7ECE00C944E3425E530E0B90188
:103D6000681B790B9B01220F331F260F371F37FF6C
:103D7000D4CF2F5F3F4FD1CF8E2D01FD8F2D2091BE
:103D80003601622F600F7727771F9B01220F331FA9
:103D9000260F371F255F3C4F412F609108030E947B
:103DA000B91A0F5FC2CF0F931F93CF93DF93EC012C
:103DB00010E000E0909138019017110609F06CF4C2
:103DC0000E94641B8C8190E00196817099278C83FE
:103DD000DF91CF911F910F91089520913601A80195
:103DE000420F511D9A01220F331F240F351F255FEB
:103DF0003C4F4C8160910803809107039695901782
:103E0000110651F04CF0442349F0409109030E94FF
:103E1000B91A0F5F1F4FCECF4423B9F340E0F7CF5D
:103E2000E6E0F3E080818E7F808360817181828112
:103E300093810E94DA1A1092AC022FEF80E792E091
:103E4000215080409040E1F700C000000E94641BB8
:103E50000895E6E0F3E080818E7F80831092AC02CB
:103E60002FEF80E792E0215080409040E1F700C0C2
:103E700000000E94641B08951092AC028091A90278
:103E800081110AC081E08093A902809106038170AC
:103E90008093A8020E94291F0895609106036695E9
:103EA00070E04BE050E089E391E00E946F34892B91
:103EB00019F481E08093AC020E9449139093A3020D
:103EC0008093A20208959091060390FF2BC09170F9
:103ED000811129C0926090930603662351F060918E
:103EE00006037091070380910803909109030E94D3
:103EF000DA1A60910603669570E04BE050E089E3C2
:103F000091E00E946F34892BA9F01092AC0281E0FD
:103F10008093A502409109036091080380910703F3
:103F20000E942D1D0895853210F09864D4CF880F1B
:103F3000982BD1CF0E944D1FEACF682F9091060396
:103F4000969581E0890F853208F081E00E94631F19
:103F5000089581E00E949D1F0895682F90910603A7
:103F600096958FEF890F09F484E20E94631F0895EC
:103F700081E00E94AD1F089561E00E94631F0895D3
:103F8000E6E0F3E080818160808386950E94BC1F1B
:103F900008958091060380FF03C00E94101F0895BA
:103FA0000E94C01F089560E00E94631F08958091E1
:103FB000AA0281112EC00E94C60F811104C00E9466
:103FC00073100E94F81A0E94D51A6093060370932A
:103FD000070380930803909309036E7F61F40E94A6
:103FE000F81A0E94D51A6093060370930703809312
:103FF0000803909309030E94BF1A1092AC028091AB
:10400000060380FF03C086950E94D31F81E0809342
:10401000AA020895E6E0F3E08081816080838695BE
:104020000E94D31F08951092A9028091A8028111C5
:104030000E940A200E944D1F08950F931F93CF9353
:10404000DF938091AC028823B9F18091AB02E091BB
:104050000603E695E81BE093A402823091F5F0E0B8
:10406000E558FB4FE491CE2FD0E005EF1BE18091A6
:10407000A502882361F01092A5020E944913909333
:10408000A3028093A2021092A7021092A6020E949D
:104090004913E091A202F091A3028E1B9F0B8F3F68
:1040A0009F4750F4EC0FFD1FF093A302E093A20290
:1040B00082EA92E0F8010995DF91CF911F910F916B
:1040C0000895863049F4F0E0E858FB4FE491CE2F94
:1040D000D0E009E01CE1CBCF893051F4E695F0E067
:1040E000EB58FB4FE491CE2FD0E001E31DE1BFCFB1
:1040F0008F3051F4E695F0E0EE58FB4FE491CE2F6F
:10410000D0E00EE61DE1B3CF853149F4F0E0E1598E
:10411000FB4FE491CE2FD0E00EED1DE1A8CFC8E219
:10412000D0E001E51EE1883109F4A1CF833239F4F2
:10413000EDE6F4E0C591D49109E11CE198CFC4EF1C
:10414000D1E003ED1EE1843209F491CFC0EDD7E058
:1041500007EA1AE18CCFFA01811101C0FB01099530
:104160000895CF93DF93C82FD62F0E94091B8C1779
:1041700048F00E94091B8D1728F40E94A91FDF91A7
:10418000CF9108958C2F0E94BC1FF9CF1F93CF931E
:10419000DF93EC01FB01128111117EC00E94D80E49
:1041A0008272CC3CFCE5DF0709F49CC008F041C0FA
:1041B000C63CECE5DE0709F481C0D8F4C33C9CE5BD
:1041C000D90709F471C030F4C23CDC4509F469C078
:1041D00011E062C0C43C9CE5D90709F46AC045EE11
:1041E0005CE166ED7CE1C53CDC4591F70E94AB20CB
:1041F00053C0C93CFCE5DF0709F46AC068F4C73C5A
:10420000ECE5DE0709F45FC046EF5CE167E07DE1C5
:10421000C83CDC4559F3DCCFCA3C9CE5D90709F41E
:104220005CC04DE35BE165E27BE1CB3CDC45F1F258
:10423000CFCFC13DFCE5DF0709F465C098F4CE3C63
:104240009CE5D90709F457C008F451C0CF3CFCE500
:10425000DF0709F455C0C03DDC4509F0B9CF6EE079
:1042600089E04BC0C43D9CE5D90709F452C058F41D
:10427000C23DFCE5DF0709F449C0C33DDC4509F058
:10428000A7CF88E135C0C53D9CE5D90709F444C0F6
:10429000CD35DD4509F09CCF812FDF91CF911F9166
:1042A00008950E94C91FF8CF48EB5FE169EA7FE1FA
:1042B0009DCF49EA5FE168EB7FE198CF46ED5CE195
:1042C00065EE7CE193CF47E05DE166EF7CE18ECF68
:1042D00049E25DE168E17DE189CF48E15DE169E2C4
:1042E0007DE184CF45E25BE16DE37BE17FCF81E05F
:1042F0000E94BC1FD1CF65E082E00E94B120CCCFEC
:1043000068E086E0FACF64E18FE0F7CF67E185E10E
:10431000F4CF62E289E1F1CF83E2EACF539A4BB165
:10432000477F5BB15860EFB7F8949B01220F331FB2
:10433000260F371F280F391F2817390741F4EFBF01
:104340008FE594E00197F1F700C000000895DC01CB
:104350006D91CD0178E05BB9000000C067FF4BB9FB
:10436000660F000000C000C000C04BB900C07A95C5
:1043700091F7E2CF83E290E00E949234823289F496
:1043800084E290E00E949234883059F485E290E013
:104390000E94923491E0883009F090E0892F81707A
:1043A000089580E0FCCFCF93C82F6FEF811162E2B8
:1043B00083E290E00E94A634C1110DC0CFEF6C2FB4
:1043C00084E290E00E94A6346C2F85E290E00E9487
:1043D000A634CF910895C8E0F2CF089586E290E028
:1043E0000E949234682F70E090E080E00895089574
:1043F000CF93C62F0E94F7216C2F86E290E00E9497
:10440000A634CF91089580E00E94D32160E070E04F
:10441000CB010E94F8210E9412250E94ED2581E027
:104420000E94D32108950E94ED210E94EE210E9456
:10443000F7210E94BA21811102C00E94032208952F
:10444000CF93FB01C281CC2309F19C0122513F454E
:104450002031310520F582510E94FD25C0E08C2FCE
:10446000CF91089581E00E940B0B43E062E081E070
:104470000E94FA04F3CF81E00E94170B43E062E050
:1044800081E00E94FA04EBCF82E0F6CF8031FFE5B5
:104490009F0789F381319F45B9F3C1E0E0CF8031B7
:1044A000EFE59E07F9F281319F45C9F682E0DBCF47
:1044B0002FEFFC0120830895CF93DF93EC018881D7
:1044C0008138A9F028F4803871F0DF91CF910895F8
:1044D000823881F08338C9F70E94571B89830E9474
:1044E0005A1B8A83F2CF0E945D1B8983EECF0E9404
:1044F000091BFBCF0E94411BF8CFCF93DF93EC0148
:1045000088818138D9F028F4803869F0DF91CF9123
:1045100008958238F9F08338C9F70E945D1B482F4F
:104520006A81898108C0D9810E945A1BC82F0E94C4
:10453000571B4D2F6C2F0E942D1DE8CF89810E94A3
:10454000D31F8981811103C00E94291FDFCF0E94E0
:104550000A20DCCF89810E94531BD8CFEF92FF92B3
:104560000F931F93CF93DF93EC01062FDC01ED91A6
:10457000CD01E150E33108F0ACC0F0E0E851FB4C74
:104580000C94EE33198289E08A83602FCE010E9459
:104590009C2CCDB7DEB7E6E00C9454348981823090
:1045A00069F0833071F08130D9F40E94BE2B0E94F3
:1045B000F4336A837B838C839D83E7CF0E94EE2153
:1045C000F6CF7E01B2E0EB0EF11C10E0812F0E94CD
:1045D0009313F70181937F011F5F1C30B9F7D5CF8B
:1045E000602FCE010E945822D0CF89818230C1F73E
:1045F0006A817B818C819D810E94F4330E94F82125
:10460000C4CF4B816A8189810E94D424982789274D
:1046100098279D838C83B9CF2C813D813227232716
:1046200032274B816A8189810E94F624AECF0E9495
:104630001225ABCF0E947D22A8CF0E945C22A5CF7D
:104640000E94ED1AA2CF0E94A02589839ECF0E94CE
:10465000A2259827892798279A83898396CF6B81EB
:1046600070E089819A81AE014C5F5F4F982789275E
:1046700098270E94A52589CF6B8170E089819A8156
:10468000AE014C5F5F4F9827892798270E94C92564
:104690007CCF0E94ED2579CF0E94C124D6CF6B81BB
:1046A00070E089819A81AE014C5F5F4F982789271E
:1046B00098270E944A2569CF6B8170E089819A8191
:1046C000AE014C5F5F4F9827892798270E946E257F
:1046D0005CCF8FEF888359CF0895FC01680F791F55
:1046E0008FEF91E36E177F0709F4089521918227D8
:1046F00028E030E087FF06C0880F89272150310964
:10470000C9F7F0CF880FFACFCF93DF93EC01FB010D
:104710008281882309F433C1C330FDE5DF07C0F58A
:10472000CA3F9CE5D90730F49E0122503C45243114
:104730003105B0F50E94DC0F9093EB028093EA0202
:10474000C1318CE5D80709F4EEC008F069C0C93062
:10475000ECE5DE0709F4D5C0C8F5C5308CE5D8070F
:1047600009F4C7C000F5C330ECE5DE0709F4B9C0B1
:1047700008F0BBC0C230DC4509F4ADC08091EA024C
:104780009091EB020E94EA0F0E94940A80E008C018
:10479000C136EDE5DE0771F2C53AFDE5DF0751F2FE
:1047A000DF91CF9108958091EA028062C7309CE545
:1047B000D90709F493C08091EA028061C830DC45D2
:1047C00008F48CC08091EA02806488C08091EA027B
:1047D0008B7FCD30FCE5DF0709F480C098F4809131
:1047E000EA028E7FCB309CE5D90709F477C080912F
:1047F000EA028C60CC30DC4508F470C08091EA029B
:104800008D7F6CC08091EA028F7ECF30FCE5DF07A0
:1048100009F464C008F47BC08091EA028F7D5EC019
:10482000CD3F9CE5D90709F47AC050F5C531FCE5C8
:10483000DF0709F486C098F48091EA02837FC331D0
:104840009CE5D90709F44AC008F471C00E94940A93
:104850009091EA02892F97FB87F980583FC0CB3FA0
:10486000FCE5DF0709F449C008F055C08091EB0270
:104870008160CA3FDC4509F081CF8093EB027ECF97
:10488000C130EDE5DE0709F468C0A8F4CF3F8CE540
:10489000D80709F452C08091EB028360C115DD4551
:1048A00060F38091EB02982F909591708E7F892B09
:1048B00090FB81F9E2CFC136EDE5DE0709F451C086
:1048C000C53AFDE5DF0709F453C0C230DD4509F004
:1048D00055CF80E043C08091EA0281608093EA0274
:1048E0004DCF8091EA028260F9CF8091EA02846024
:1048F000F5CF8091EA028860F1CF8091EB0282606F
:10490000BCCF0E94940A8091EA028068E7CF809130
:10491000EA02877FE3CF8091EB028E7FAECF80915A
:10492000EB028D7FAACF8091EA028F7BD7CF0E94C6
:10493000940A8091EA028F77D1CF8091EB028C7F2D
:104940009CCF8091EA0282FB992790F921E092277F
:1049500090FB82F990FB83F9C1CF81E00E94761031
:104960000DCF9091EA02892F8F7E94FF8061B6CFA0
:104970009091EA02892F8E7F90FF8160AFCF81E016
:104980000FCF84E0089590E1699FB001112450E0B9
:10499000440F551F640F751F90EC899F600D711DAA
:1049A0001124CB01879608950F931F93CF93DF9324
:1049B0008430C8F46C30B8F44830A8F40E94C324A2
:1049C0008C010E949234C82FD0E0DC2FCC27C80184
:1049D00001960E9492349E01282BC901DF91CF914C
:1049E0001F910F91089590E080E0F8CF0F931F93EF
:1049F000CF93DF93122F032F843078F46C3068F458
:104A0000483058F40E94C324EC01602F0E94A63461
:104A1000612FCE0101960E94A634DF91CF911F91A4
:104A20000F910895AF92BF92CF92DF92EF92FF92D3
:104A30001F93CF93DF938DEBC82E80E0D82ED0E06C
:104A40007601C0E014C0F50125913491412F6C2FFF
:104A50008D2F0E94F62482E0A80EB11C1F5F183033
:104A600091F780E1E80EF11CCF5FCC3019F05701CF
:104A700010E0E9CFDF5F80ECC80ED11CD43001F725
:104A8000DF91CF911F91FF90EF90DF90CF90BF907B
:104A9000AF900895EF92FF920F931F93CF93DF9300
:104AA000EC018A017C01E60EF71ECE018796CE1539
:104AB000DF0529F4CDB7DEB7E6E00C945434C11518
:104AC00023E0D20740F40E949234F80180830F5F04
:104AD0001F4F2196EACFF8011082F9CFB0E0A0E095
:104AE000E4E7F5E20C9436347C016A018C01060F90
:104AF000171FEC01CE018796C017D10729F4CDB757
:104B0000DEB7E8E00C945234C11523E0D20740F43C
:104B1000FE01EE19FF09EC0DFD1D60810E94A63417
:104B20002196E8CF462F843040F47C3030F4683052
:104B300020F4672F0E94D424089590E080E0089527
:104B400080E1089589ED90E00895EF92FF920F9330
:104B50001F93CF93DF93EC018A017C01E60EF71ED1
:104B6000CE01895D9C4FCE15DF0529F4CDB7DEB7A8
:104B7000E6E00C945434C93DD10540F40E949234CF
:104B8000F80180830F5F1F4F2196EACFF801108252
:104B9000F9CFB0E0A0E0EFECF5E20C9436347C0104
:104BA0006A018C01060F171FEC01CE01895D9C4F35
:104BB000C017D10729F4CDB7DEB7E8E00C94523422
:104BC000C93DD10540F4FE01EE19FF09EC0DFD1DB4
:104BD00060810E94A6342196E8CFCF93DF93C7E28D
:104BE000D3E060E0CE010E94A6342196C11584E096
:104BF000D807B9F7DF91CF910895A4E0B0E0E3E0E2
:104C0000F6E20C943734F82E8FE08F1548F18FEFD1
:104C100093E00E949234811123C007E213E0F11067
:104C200023C019821A821B821C82DD24D39478014E
:104C30008FEFE81AF80AC8010E94923489831A8219
:104C4000882371F09FEF980F9330D8F48A83D9822C
:104C50000E5F1F4FC7010E9492348B83811112C0D7
:104C60002496E7E00C945334011584E01807C1F34F
:104C7000C8010E949234811101C0FA940F5F1F4F46
:104C8000CECF8701CE0101960E945406D0CF8FE887
:104C900091E00197F1F700C0000008950E945504CB
:104CA00008959091020181E098279093B102282FF6
:104CB000291B2093B002909102018093B20290913F
:104CC00002018093AF0224982C9A25982D9A0E9475
:104CD00047262091B20245EB52E0FA018E2F841B49
:104CE000821708F0089583B1829581701D9904C0E0
:104CF00090E0892B8193F2CF92E0FBCFCF92DF92AD
:104D0000FF920F931F93CF93DF9310E000E084E0B6
:104D1000C82ED12C8091B202181748F0802FDF9155
:104D2000CF911F910F91FF90DF90CF900895C12FE9
:104D3000D0E0E3B1E295E1701D9944C080E08E2B94
:104D4000DE01AB54BD4FEC919E2F93709817C1F1CB
:104D5000EE0FEE0FE82BEC93F090B102F10EEF7036
:104D6000F0E0EA57FE4FCD54DD4F80819881890FE6
:104D7000888320E0843064F0EF2DF0E0E355FD4FB0
:104D800080818F5F808360E08F2D0E944E2621E01E
:104D900088818D3F64F4EF2DF0E0E355FD4F808175
:104DA0008150808361E08F2D0E944E2621E0888112
:104DB000082E000C990BB6010E94B8338883022B91
:104DC0001F5FA8CF82E0BBCF4091B20250E060915C
:104DD000B10270E063557D4F0E9489340895B0E0C0
:104DE000A0E0E5EFF6E20C9436346C01D0E080E010
:104DF0009091AF02D91740F081110E948F10CDB76A
:104E0000DEB7E8E00C945234F090B002FD0E0F2DA6
:104E100010E003551D4FF601ED0FF11DC081F801A3
:104E20009081C91BEC2E1E1444F09C2FC7FD90E00E
:104E3000C91BC1110DC0DF5FDBCFEA94F80180818F
:104E40008F5F808360E08F2D0E944E2681E0EBCF44
:104E5000CF5FF80180818150808361E08F2D0E94B7
:104E60004E2681E0E6CFCF93DF93EB0186319C4560
:104E700011F50E94D80E9A81992399F08A7A91E0CF
:104E800009F490E09093B702811109C089E20E9471
:104E9000B00E0E94190F80E0DF91CF91089585E355
:104EA000F6CF8091B702811104C089E20E94B80E4A
:104EB000F0CF85E3FBCF81E0EFCF0F931F93CF932C
:104EC000DF93C42FD22FFC0182818823C9F0409345
:104ED000BA020E94B22B9093B9028093B80280E28A
:104EE0008C0F883040F4C77081E001C0880FCA95EC
:104EF000EAF70E946408DF91CF911F910F91089506
:104F00001091BA02141332C08091B8029091B90284
:104F10000E94CA2B883C910548F5C0E2CD0F1D17B1
:104F2000B9F080E2810F883040F4177081E001C051
:104F3000880F1A95EAF70E946B08C83048F481E0A0
:104F40009D2F977001C0880F9A95EAF70E94640818
:104F5000802F0E945B08C83070F6D77081E001C0D6
:104F6000880FDA95EAF70E946B08C5CF80E28C0FB4
:104F7000883008F6C77081E001C0880FCA95EAF74B
:104F8000F2CF0F939C01CB01233F4CE5340759F13D
:104F9000A8F4283DFCE53F0701F1293D4CE5340725
:104FA000D1F1273D3C4591F406E221EE41EE67ED5B
:104FB0007CE50E945D2780E00F910895253FFCE588
:104FC0003F07E9F0B0F0263F3C45F9F0FC01828153
:104FD000882339F11092BA02EFCF07E225EE45EEB1
:104FE00068ED7CE5E6CF06E221EE40EE63EF7CE57E
:104FF000E0CF07E225EE44EE64EF7CE5DACF06E28F
:1050000021EE42EE65EF7CE5D4CF07E225EE46EED9
:1050100066EF7CE5CECF08E221E045EE69ED7CE568
:10502000C8CF81E0C9CF8EE14A9B02C08150E1F731
:105030004A9BFECF08955A9880E28A95F1F75A9AD2
:105040000895FC013BE03A95F1F798E020E080E01C
:1050500031E040E14A95F1F7880F4A9B02C0816038
:10506000232742E04A95F1F7000040E14A95F1F725
:10507000915079F790E19A95F1F799B132E03A952C
:10508000F1F7000040E14A95F1F792FB992790F97A
:1050900092272081920F90830895A1E0B0E0E3E58C
:1050A000F8E20C94383419828C017C01E60EF11C74
:1050B0000E151F0541F481E09981911180E0219640
:1050C000E6E00C9454340E941328CE0101960E940D
:1050D0002128F80181938F01EBCF529A5A9A0895B3
:1050E00052985A9AEA9AE9E6F0E080818F7C8083B0
:1050F00008956150770B91E001C0990F6A95EAF726
:1051000020E031E0911108C0222391F05A9A80E208
:105110008A95F1F75A980895492F482339F05A9AF9
:10512000232740E24A95F1F79695ECCF5A98F9CFAC
:105130005A98EDCFFF920F931F93CF93DF93EC011B
:105140008C01060F111DC017D10729F4CDB7DEB7AA
:10515000E5E00C945534F9900E941B2868E08F2DEF
:105160000E947928F0CF1F920F920FB60F92112450
:105170000F931F932F933F934F935F936F937F935F
:105180008F939F93AF93BF93EF93FF93CF93DF934F
:105190000F92CDB7DEB719820E941328CE01019677
:1051A0000E942128082F069506950695282F2295FE
:1051B0002570902F9570290F922F93702695269524
:1051C000920F982797708981982B09F05CC0063060
:1051D00008F059C080E18A95F1F75A9A529A82E014
:1051E0008A95F1F700C05A9888E0089F8001112441
:1051F000D801AD5FBE4F1696ED91FC911797309791
:10520000A9F060915F017091600114962D913C911D
:105210001597260F371F11968D919C911297680F45
:10522000791F13964C9113978C910995F801ED5FB6
:10523000FE4F6381662351F020915F013091600140
:1052400084819581820F931F0E949A280E941B28B7
:1052500080E18A95F1F75A9852985A9A80E18A9596
:10526000F1F7F801ED5FFE4F6081662351F0209168
:105270005F013091600181819281820F931F0E94B2
:105280004D280E9413280F90DF91CF91FF91EF914D
:10529000BF91AF919F918F917F916F915F914F914E
:1052A0003F912F911F910F910F900FBE0F901F9064
:1052B00018950F931F93CF93DF93EC0106970CF093
:1052C0004CC0F894529A5A9885E08A95F1F70000FC
:1052D0009C2F969595708C2F8570980F892F8370D1
:1052E0009695969523E0CC0FDD1F2A95E1F7980F50
:1052F0008E01092B0E941B2800C068E0802F0E94AD
:10530000792880E18A95F1F752985A9A4A9B1EC0F3
:1053100087E090E04A991CC0FE01ED5FFE4F63817B
:105320006623F9F020915F013091600184819581BD
:10533000820F931F0E944D28811113C0529A5A9ACE
:105340007894DF91CF911F910F91089500C0DECF27
:10535000019729F4529A5A9A789480E0F2CF00C0CB
:10536000D9CF0E94132880E28A95F1F75A98529A71
:1053700080E18A95F1F7CD5FDE4F6881662351F0B9
:1053800020915F013091600189819A81820F931F82
:105390000E949A280E941B28789481E0D2CF909393
:1053A000A7018093A60108959093C1028093C00243
:1053B00008950E943415811103C08091BB020895A5
:1053C000E091C002F091C102309729F00190F08184
:1053D000E02D0995089580E00895E091C002F091D4
:1053E000C102309799F020915001222359F0209169
:1053F000EA0227FF07C0DC012C9111962C9311972C
:1054000026E02C930280F381E02D09950895E09128
:10541000C002F091C102309739F022E0DC012C93F8
:105420000480F581E02D099508952091BE02309108
:10543000BF022817390771F09093BF028093BE0214
:10544000E091C002F091C102309721F00680F7810F
:10545000E02D099508952091BC023091BD022817D6
:10546000390771F09093BD028093BC02E091C002B5
:10547000F091C102309721F00084F185E02D09956B
:105480000895FC01329680915001882321F080918B
:10549000EA029EE187FF96E080E0915008F40895CB
:1054A00021912223D1F38F5FF8CF662301F1209160
:1054B00050012223F1F02091EA0227FF1AC0462F63
:1054C0004695469546954E3190F4677021E030E060
:1054D00002C0220F331F6A95E2F7840F911DFC0171
:1054E000828190E02823392381E0232B69F480E036
:1054F0000895FC01329608962191261721F0E817AD
:10550000F907D1F7F4CF81E008959C01FC013296B0
:105510009FEF80E04191461751F09F3F19F44111F0
:1055200001C0982F8F5F8630A9F79F3F09F4089537
:10553000290F311D97FD3A95F90162830895FC0109
:10554000329608962191261303C0DF0111971C9211
:10555000E817F907B9F70895E62FE695E695E69579
:10556000EE3168F4E80FF92FF11D677021E030E0AB
:1055700001C0220F6A95EAF78281822B8283089507
:10558000E62FE695E695E695EE3170F4E80FF92FF3
:10559000F11D677021E030E001C0220F6A95EAF743
:1055A000209582812823228308952091500122236F
:1055B00039F02091EA0227FF03C00E94AC2A089527
:1055C0000E94852A089520915001222339F02091CC
:1055D000EA0227FF03C00E94C02A08950E949F2A62
:1055E0000895FC01329680915001882351F08091FA
:1055F000EA0287FF06C08EE1DF011D928A95E9F776
:10560000089586E0F9CF46E050E00E947C3421E026
:10561000892B09F420E0822F089508950E940D2B14
:105620000895811106C081E08093C2020E940E2B72
:10563000089582E0F9CF83E08093C2020E940E2B8E
:1056400008950E94112B089581E08093C2020E9468
:105650000E2B08950E94242B0895089508950E940A
:105660002E2B0895089508950E942D2B0895CF9311
:105670000E94322B0E94B7140E94332BC0E08C2F63
:105680000E949313811105C0CF5FCC30C1F7CF9139
:10569000089581E0FCCF85B7806885BF85B78068B5
:1056A00085BF08951F921FB61F9211248F939F9359
:1056B000AF93BF938091C302811113C080910D04F9
:1056C00090910E04A0910F04B09110044196A11D79
:1056D000B11D80930D0490930E04A0930F04B0931A
:1056E0001004BF91AF919F918F911F901FBE1F908B
:1056F000189580911504843031F10E948305109231
:10570000C30288E190E020E40FB6F894A895809356
:1057100060000FBE2093600083B7817F846083BFE9
:1057200083B7816083BF7894889583B78E7F83BF6A
:105730000FB6F894A895809160008861809360000E
:10574000109260000FBE08950E94940A0E948A057C
:10575000089582E084BD93E095BD9AEF97BD809354
:105760006E0008952FB7F89480910D0490910E0467
:10577000A0910F04B09110042FBF08952FB7F89493
:1057800060910D0470910E0480910F0490911004AB
:105790002FBF08959C014FB7F89480910D0490910C
:1057A0000E04A0910F04B09110044FBF821B930B05
:1057B0000895CF92DF92EF92FF922FB7F894C090A6
:1057C0000D04D0900E04E0900F04F09010042FBF51
:1057D000A7019601261B370B480B590BCA01B901CB
:1057E000FF90EF90DF90CF90089578941F921FB6AE
:1057F0001F9211248F939F93AF93BF9380910D04B9
:1058000090910E04A0910F04B09110040196A11D77
:10581000B11D80930D0490930E04A0930F04B093D8
:105820001004BF91AF919F918F911F901FBE1F9049
:10583000189587E797E7909301088093000888E11F
:105840009AE00FB6F894A895809360000FBE9093ED
:105850006000FFCF88E19AE00FB6F894A895809396
:1058600060000FBE90936000FFCF8091E402089526
:10587000089508959C0184E08093E9009FEF809152
:10588000E800915085FD06C085ED8A95F1F700008E
:105890009111F5CF8091E80085FF0CC050E040E009
:1058A00066E070E0C9010E94AE2E8091E8008E771C
:1058B0008093E8000895CF93DF93EC01809150012D
:1058C0008823B1F18091EA0287FF32C060E284E070
:1058D0008093E9008FEF9091E800815095FD06C01C
:1058E00095ED9A95F1F700008111F5CF8091E800D0
:1058F00085FF1BC08091500170E050E040E08111B5
:1059000004C050E040E068E070E0CE010E94AE2E9E
:105910008091E8008E778093E80080E2FE01A4EC9D
:10592000B2E001900D928A95E1F7DF91CF91089551
:1059300068E081E0CDCF0895CF93FC01603221F57E
:1059400080911504843001F5C091E900CF70209159
:10595000EC00922F917020FD90E8C92B82E080939B
:10596000E9008091E80080FF0CC050E040E060E278
:1059700070E0CF010E94AE2E8091E8008E77809378
:10598000E800CF70C093E900CF910895809114048E
:10599000811109C00E948D300E94EA308091E2009E
:1059A00084608093E20008951092140408950E9488
:1059B000242B08956091110481E0611101C080E001
:1059C0000E941B2B08959091150481E0943009F0FA
:1059D00080E0609111040E94212B089542E061EC67
:1059E00081E00E94093042E261EC84E00E940930CB
:1059F00042E261EC82E00E94093042E260EC83E026
:105A00000E9409309091150481E0943009F080E003
:105A1000609111040E94112B089580911704833026
:105A200009F463C030F48130E1F1823009F4A0C0A0
:105A300008958A3009F48CC08B3009F471C0893024
:105A400009F052C080911604813209F04DC0809156
:105A50001A0490911B04009719F0029709F044C0B2
:105A60008091E800877F8093E8008091E80082FFC2
:105A700037C09091F3008091F200029731F4809149
:105A8000F100813011F0863021F48091F100809393
:105A9000E4028091E8008B778093E8000E943D301B
:105AA00023C080911604813AF9F48091E800877F41
:105AB0008093E80080911A0490911B04892B61F473
:105AC00060E284EC92E070E00E944C2F8091E8004C
:105AD0008B778093E800089560E090E080E0F3CF5A
