:100000000C9436040C9453040C9453040C942F2930
:100010000C9453040C9453040C9453040C94530404
:100020000C9453040C9453040C9485310C94593261
:100030000C94CE2B0C9453040C9453040C94530442
:100040000C9453040C9453040C9453040C945304D4
:100050000C9453040C94712C0C9453040C9453047E
:100060000C9453040C9453040C9453040C945304B4
:100070000C9453040C9453040C9453040C945304A4
:100080000C9453040C9453040C9453040C94530494
:100090000C9453040C9453040C9453040C94530484
:1000A0000C9453040C9453040C94530468747470AB
:1000B000733A2F2F716D6B2E666D2F0A0029002861
:1000C000003A003B003C003D003E002B6235001E24
:1000D000001F002000210022003F002B002B0014F5
:1000E000001A000800150017004A00FA0039000441
:1000F000001600070009000A004D00F900E1001D8C
:10010000001B00060019000500E0000000E34100AC
:100110000050004F002C642A00E200000041004221
:1001200000430044004500460047004800400023CB
:100130000024002500260027002D002E004B001C67
:100140000018000C00120013002F0030004E000BAE
:10015000000D000E000F003342340031004C00113E
:1001600000100036003700380028002A00654328B8
:10017000002C6552005100E50000005004E7002803
:10018000003A003B003C003D003E001D0101001E06
:10019000001F002000210022003F001C012B04143E
:1001A000001A000800150017004A00FA00010004B8
:1001B000001600070009000A004D00F90001001DAB
:1001C000011B01060119010500E00000000100000B
:1001D0000050004F002C642A00E200000041004261
:1001E000004300440045004600470048004000230B
:1001F0000024002500260027002D002E004B001CA7
:100200000018000C00120013002F0030004E000BED
:10021000000D000E000F003342340031004C00117D
:1002200000100036003700380028002A00654328F7
:10023000002C6552005100E5000000A8002900A82C
:10024000003A003B003C003D000000520035000039
:1002500000FD00FE00FF0000003F0051002B00FBEE
:1002600000F700F000F800FC004A00FA003900FA3C
:1002700000F200F100F300F9004D00F900E1001D6B
:1002800000F600F400F5000500E0000000E3410086
:100290000050004F002C642A00E2000000410042A0
:1002A000004300440045004600470048004000234A
:1002B0000024002500260027002D002E004B001CE6
:1002C0000018000C00120013002F0030004E000B2D
:1002D000000D000E000F003342340031004C0011BD
:1002E00000100036003700380028002A0065432837
:1002F000002C6552005100E5000000A8000100013B
:1003000000010001000100010001000100010001E5
:1003100000010001000100010001000100010001D5
:1003200000010001000100010001000100010001C5
:1003300000010001000100010001000100010001B5
:1003400000010001000100010001000000010000A7
:100350000001000100010001000100000001000196
:100360000001000100010001000100010001000185
:10037000000100010001000100010001004A00012C
:10038000000100010001000100010001004D000119
:10039000000100010001000100010001004900010D
:1003A0000001000100010001000100010001000145
:1003B0000001000100010001000000010000000038
:1003C00000000000002A2B280000000000000000B0
:1003D000000000000000000029000000002C1E3476
:1003E00020212224342627252E362D3738271E1F7C
:1003F000202122232425263333362E37381F0405A7
:10040000060708090A0B0C0D0E0F10111213141514
:10041000161718191A1B1C1D2F3130232D350405F2
:10042000060708090A0B0C0D0E0F101112131415F4
:10043000161718191A1B1C1D2F3130354C000000DF
:1004400000000000000000000000000000000000AC
:10045000000000000000000000000000000000009C
:10046000007E0F00D4FFFFFFC70000007800047F6C
:100470003F1F643214643214783C1E1E140A052295
:1004800023252628292A2C2D2F3032333536383A89
:100490003B3D3E4042434547494A4C4E50515355DF
:1004A00057595A5C5E6062646668696B6D6F717300
:1004B0007577797B7D7F81838587898A8C8E909201
:1004C0009496989A9C9E9FA1A3A5A7A8AAACAEAF0C
:1004D000B1B3B4B6B8B9BBBCBEBFC1C2C3C5C6C751
:1004E000C9CACBCCCDCED0D1D2D2D3D4D5D6D7D702
:1004F000D8D9D9DADADBDBDBDCDCDCDCDCDDDDDD4A
:10050000DDDCDCDCDCDCDBDBDBDADAD9D9D8D7D745
:10051000D6D5D4D3D2D2D1D0CECDCCCBCAC9C7C6F2
:10052000C5C3C2C1BFBEBCBBB9B8B6B4B3B1AFAE30
:10053000ACAAA8A7A5A3A19F9E9C9A9896949290D6
:100540008E8C8A89878583817F7D7B7977757371AE
:100550006F6D6B6968666462605E5C5A595755538B
:1005600051504E4C4A4947454342403E3D3B3A3844
:1005700036353332302F2D2C2A292826252322FFE9
:10058000AA7F554047413B353132363C42484C50BA
:1005900055514D49433D37383E444A4E5253544FCE
:1005A0004B453F39332F2E30343A40462827211B04
:1005B00015080500010203040F0B0E0D0A070609BA
:1005C0000C1011121314161718191A1C1D1E1F20B7
:1005D00022232425262A292B2C2D0001010101018B
:1005E00001010101020202020202020202030303EC
:1005F00003030303030404040404040405050505BC
:10060000050606060606070707070708080808097B
:100610000909090A0A0A0B0B0B0C0C0C0D0D0D0E27
:100620000E0E0F0F0F1010111111121213131414BC
:10063000151516161717181819191A1A1B1B1C1D31
:100640001D1E1E1F2020212222232424252626278A
:100650002829292A2B2C2D2D2E2F303132323334BC
:1006600035363738393A3B3C3D3E3F4041424344C2
:1006700045464748494A4C4D4E4F505153545556A4
:1006800058595A5B5D5E5F616264656668696B6C50
:100690006D6F7072737577787A7B7D7E80828385CB
:1006A00087888A8C8E8F91939596989A9C9EA0A20B
:1006B000A3A5A7A9ABADAFB1B3B5B7BABCBEC0C215
:1006C000C4C6C9CBCDCFD1D4D6D8DBDDDFE2E4E7D9
:1006D000E9EBEEF0F3F5F8FAFDFF240355006E00A8
:1006E0006900760065007200730061006C004300D1
:1006F00065006E0074007500720079003200000021
:10070000120341006E006400790043006800690034
:10071000750000000403090409025B00030100A046
:10072000FA0904000001030101000921110100017F
:1007300022400007058103080001090401000203AB
:100740000000000921110100012222000705820397
:100750002000010705030320000109040200010332
:100760000000000921110100012284000705840313
:1007700020000112010002000000084341020002B3
:1007800000010200010660FF0961A1010962150074
:1007900026FF009520750881020963150026FF00D9
:1007A000952075089102C005010902A10185020981
:1007B00001A10005091901290815002501950875F1
:1007C0000181020501093009311581257F950275E6
:1007D00008810609381581257F9501750881060570
:1007E0000C0A38021581257F950175088106C0C065
:1007F00005010906A1018506050719E029E715008D
:1008000025019508750181020507190029EF1500DA
:10081000250195F075018102050819012905950545
:1008200075019102950175039101C005010906A1A9
:1008300001050719E029E7150025019508750181D3
:10084000029501750881010507190029FF15002689
:10085000FF00950675088100050819012905950511
:1008600075019102950175039101C00011241FBE0D
:10087000CFEFDAE0DEBFCDBF11E0A0E0B1E0E2E013
:10088000FBE602C005900D92AA3BB107D9F724E020
:10089000AAEBB1E001C01D92A233B207E1F70E94BA
:1008A000FB170C9456350C94000080911201909126
:1008B0001301892B41F080910F0190911001892340
:1008C0008F3F09F077C080910D0190910E01892B27
:1008D00041F080910A0190910B0189238F3F09F02B
:1008E0004FC08091080190910901892B39F08091C6
:1008F00006019091050189238F3F49F580910301FD
:1009000090910401892B09F46FC0809100019091AE
:10091000010189238F3FB1F40895109202010E94D2
:100920002E2C8160782F90930401809303014091D5
:1009300000015091010160910201809104010E9427
:10094000B5070895809102018111E7CF0895809144
:100950000701882399F2109207010E942E2C8160D2
:10096000782F9093090180930801409105015091DF
:10097000060160910701809109010E94B507BECF71
:1009800080910C01882309F4ACCF10920C010E94D5
:100990002E2C8160782F90930E0180930D01409151
:1009A0000A0150910B0160910C0180910E010E948F
:1009B000B50797CF80911101882309F484CF109255
:1009C00011010E942E2C8160782F90931301809347
:1009D000120140910F01509110016091110180911D
:1009E00013010E94B5076FCF089581112CC081E0DB
:1009F0006623B1F080930C010E942E2C8160782F29
:100A000090930E0180930D0140910A0150910B01CA
:100A100060910C0180910E010E94B50781E008955C
:100A2000809311010E942E2C8160782F90931301E6
:100A30008093120140910F015091100160911101BA
:100A400080911301E9CF813049F7662399F08093B3
:100A500002010E942E2C8160782F909304018093D4
:100A600003014091000150910101609102018091C8
:100A70000401D2CF809307010E942E2C8160782F31
:100A8000909309018093080140910501509106015E
:100A90006091070180910901BFCF8E3A9D4541F4D5
:100AA000FB018281882321F08CEA90E00E948A0772
:100AB00081E0089581E008950E944D05089508950C
:100AC0000E945F050895A5E0B0E0E9E6F5E00C942A
:100AD000B73449835A833091BD0189819A8131119C
:100AE00019C0662399F0222389F00E94370C182F31
:100AF000682F89819A810E94140C69817A81812FE3
:100B00000E940E262596E3E00C94D3340E94250C17
:100B1000182FF3CF0E94370C69817A81F1CFFC0145
:100B2000262F408151816281738184810E946305F7
:100B3000089581E00895CF93DF93EC0160E00E9477
:100B40008F05BE010E946005DF91CF910895E1E01D
:100B5000F0E0DF0102C0AA0FBB1F6A95E2F7BD01FA
:100B6000DF0102C0AA0FBB1F4A95E2F76A2B01C042
:100B7000EE0F2A95EAF7962F9823961302C08E2B34
:100B80000895E0958E230895242F462F682F809195
:100B9000E2010E94A7050E94740B08950E940914A7
:100BA00008950E940C14089508950E94110B0E944C
:100BB000D4052FEF84E39CE0215080409040E1F782
:100BC00000C0000008950E94D5050E94952C08954C
:100BD0000E94D5050E94A62C08950F931F93CF93D2
:100BE000DF938C0161E00E948F05EC01B8010E9447
:100BF0009C22811106C080E0DF91CF911F910F915F
:100C00000895B801CE010E945C058823A1F3B801C4
:100C1000CE010E943D28882371F3B801CE010E94C5
:100C20000024882341F3B801CE010E94AF27882316
:100C300011F3B801CE010E9442218823E1F2F801AC
:100C40008281882361F0CA35FDE5DF0701F158F4A0
:100C5000C115ECE5DE0791F0CE3DDC4591F0C80111
:100C60000E945A05C9CFCC358DE5D80769F090F0C0
:100C7000C73ADD45A1F70E94E805BDCF0E94E30514
:100C8000BACF0E94F010F7CF0E942A10E8CF0E943E
:100C90003410E5CF0E943810E2CF0E94AB2B0E94A7
:100CA000A1070E94B81F08950E94A5070E948F20E7
:100CB0000E94B02B0895B0E0A0E0E1E6F6E00C94CD
:100CC000B334E82FF0E0E354FC4FD490282F26955E
:100CD0002695269530E0F901E35AFB4F0491877081
:100CE00010E0082E02C0159507950A94E2F70170EE
:100CF0001127F901E35BFB4FE490F12C082E02C0B1
:100D0000F594E7940A94E2F791E0E922FF24F901CF
:100D1000E35CFB4FC491D0E002C0D595C7958A959E
:100D2000E2F7C170DD270115110519F081EE0E946F
:100D3000F007E114F10419F086EE0E94F0078D2D02
:100D40000E94D808E114F10419F086EE0E946708A9
:100D50000115110519F081EE0E946708CD2B19F0DD
:100D60008CE20E94D808CDB7DEB7E7E00C94CF3410
:100D7000EF92FF920F931F93CF93DF93EC01162F07
:100D80000AE08881882309F454C0813009F04EC0FC
:100D90008981813099F47E0122E0E20EF11C8A8182
:100DA0000E94D808E7012196812F815050F3EFE986
:100DB000FFE03197F1F700C00000F7CF823041F437
:100DC0007E0182E0E80EF11C8A810E94F007EACFE2
:100DD000833041F47E01E2E0EE0EF11C8A810E9434
:100DE0006708E0CF843011F02196DDCF2A8122966A
:100DF00090E080E0AE014F5F5F4F2053330B2A300D
:100E0000310548F0019778F2EFE9FFE03197F1F70B
:100E100000C00000F7CF089FB001099F700D11249A
:100E2000C901860F971F2981EA01E4CF0E945B0662
:100E3000BACFCDB7DEB7E6E00C94D03460E00E94C4
:100E4000B8060895EF92FF920F931F93CF93DF930D
:100E50008C01F62E8AE0E82EF8018491882309F4AB
:100E600054C0813009F04DC0E8012196FE01849103
:100E7000813091F42196FE0184910E94D8088E0160
:100E80000F5F1F4F8F2D815038F3EFE9FFE031974F
:100E9000F1F700C00000F7CF823039F4E801229664
:100EA000FE0184910E94F007EACF833039F4E80113
:100EB0002296FE0184910E946708E1CF8430F9F602
:100EC000E8012296FE01249190E080E0FE01319637
:100ED0002053330B2A30310548F0019780F2EFE9B7
:100EE000FFE03197F1F700C00000F7CFE89EA001C6
:100EF000E99E500D1124C901840F951F2491EF0123
:100F0000E5CF0E945B06E801BACFCDB7DEB7E6E0D9
:100F10000C94D03460E00E942207089508950E9446
:100F20008E07089581E008950E949207089508951C
:100F3000CF93C82F0E948F078C2F0E949407CF91C8
:100F4000089580E00E94980708950E94552A0E9403
:100F5000980708950E94552A9091BC01981721F096
:100F60008093BC010E9498070895ABE0B0E0EBEBE2
:100F7000F7E00C94B8344F83588769877A878B875A
:100F800061110E94750F1E821D8285E0FE01379659
:100F9000DE01119601900D928A95E1F78C819D8179
:100FA000892B61F449815A816B817C818D819E817D
:100FB0000E949E0E2B96E2E00C94D43489819A8193
:100FC00089238F3F79F3CE0101960E949905811103
:100FD000E9CFF0CFFC01808191810E94640C0895DB
:100FE000CF93C82F8823C9F08238C9F40E94552AAC
:100FF00081FD13C089E30E942D0F0E94960F2FEFF1
:1010000081EE94E0215080409040E1F700C0000064
:1010100089E30E94350F0E94960FCF91089583387F
:10102000A1F40E94552A80FDF8CF83E50E942D0F80
:101030000E94960F2FEF81EE94E021508040904067
:10104000E1F700C0000083E5E4CF8438A1F40E94FA
:10105000552A82FDE2CF87E40E942D0F0E94960F51
:101060002FEF81EE94E0215080409040E1F700C0E6
:10107000000087E4CECF8CEF8C0F813A90F46C2F78
:1010800080911401909115010E94D12A882329F0A2
:101090008C2F0E94350F0E94960F8C2F0E942D0FCF
:1010A000BACF80E28C0F883048F4C77081E001C06D
:1010B000880FCA95EAF70E94580FADCFC03F08F4D9
:1010C000ACCF8C2F0E947F180E945219A6CF882384
:1010D00009F455C0823879F40E94552A81FF4FC027
:1010E00089E30E942D0F0E94960F89E30E94350F1D
:1010F0000E94960F0895833859F40E94552A80FF64
:101100003EC083E50E942D0F0E94960F83E5EECF2F
:10111000843859F40E94552A82FF31C087E40E9426
:101120002D0F0E94960F87E4E1CF9CEF980F913A24
:10113000E8F290E2980F983050F4877091E001C087
:10114000990F8A95EAF7892F0E945E0FD1CF9BE510
:10115000980F933028F490E080E00E94912A08953F
:1011600098E5980F973128F490E080E00E94A72A34
:101170000895803F20F00E94D9180E9452190895C6
:101180001F93CF93DF93182FEB010E94F007209756
:1011900039F4812F0E946708DF91CF911F91089544
:1011A0008FE99FE00197F1F700C000002197EFCF92
:1011B00070E060E0893311F460E570E00E94C008DF
:1011C0000895882321F00E94580F0E94960F0895D9
:1011D000882321F00E945E0F0E94960F0895B0E0D0
:1011E000A0E0E5EFF8E00C94B1346C01D62FC72FE6
:1011F000FC011281F580F2949FE0F9220E944E0FCB
:10120000E82E8823B9F0E12E1123A1F08C2F807FE6
:10121000803421F080E28D0F8830D0F08091FF0281
:1012200082FF16C082E00E94F90F0E944E0F91E0EB
:10123000E82EE926BC2EB2948FE0B822FBE0FB1525
:1012400008F468C0EB2DF0E0E85AFA4C0C946A34CC
:10125000E12CF0CF0C2F0F70C07F11F00295007FB2
:10126000112399F0002359F080E28D0F883010F09F
:10127000D11107C0802F0E94580F0E94960F8D2F0A
:1012800041C0802F0E94680FF8CF8D2F0E94670801
:10129000002309F43FC080E28D0F883010F0D11197
:1012A00004C0802F0E945E0F03C0802F0E946E0F2B
:1012B0000E94960F2FC00C2F0F70C07FC03211F00C
:1012C0000295007FDD2381F0D13009F463C0112342
:1012D00009F46DC0FF2009F463C0F601858180FF29
:1012E000CECF8F7085835CC08091FF0282FD33C0BA
:1012F000112359F0002329F0802F0E94580F0E94DB
:10130000960F80E00E94F00705C080E00E94670809
:101310000111C7CFEB2DE850FF0B349720F40E944A
:10132000552A0E949807EE2089F00E944A0F80FDFE
:101330000DC0F60112820E94440F0E94880BC60164
:101340000E94D90A0E94440F0E94940BCDB7DEB7C9
:10135000E9E00C94CD34112389F0F11006C00E940D
:10136000780F802B0E94E108D5CF21E0F212F7CF51
:101370000E94780F802B0E947F0FCCCFF11006C007
:101380000E948C0F802F0E94E808C4CF31E0F31632
:1013900009F2F6CF112331F085E08F1508F4BACFAA
:1013A000802FE0CF94E09F1508F4B4CFEBCFFF205F
:1013B00049F3D93349F4FFEF27EE33E0F1502040F1
:1013C0003040E1F700C000008D2F0E946708A2CFD7
:1013D0008D2F112329F00E947F180E9452199ACF55
:1013E0000E94D918FACF8C2F837079F5111192CF02
:1013F0004D2F429546954770440F440F8D2F8F70A7
:10140000042E01C0880F0A94EAF72D2F2071D4FF13
:1014100007C02FE030E001C0220F4A95EAF720957F
:10142000C695C695C370822BC23049F058F4C130BE
:1014300019F00E94620B6ECF0E945C0B6BCF0E9472
:10144000680B68CF0E94590B65CF8695112311F068
:101450008C2F8170882309F45DCF4D2F42954695DE
:101460004770440F440F8D2F8F70042E01C0880FDA
:101470000A94EAF72D2F2071D4FF07C02FE030E047
:1014800001C0220F4A95EAF72095C695C695C3700C
:10149000822BC23049F058F4C13019F00E94B30BCE
:1014A00039CF0E94AD0B36CF0E94B90B33CF0E94CB
:1014B000740B30CFCF70112329F08C2F0E94880B32
:1014C0008D2F50CF8D2F0E94E8088C2F0E94940BF7
:1014D00021CFD23F51F160F4D03FB9F0D13F81F03C
:1014E000112309F449C0F110CACE8C2F8F7121C08D
:1014F000D33F11F1D43FA1F78091FF0282FD26C0B6
:101500008C2F8F71112311F314C0112349F084E043
:101510008F1508F4FFCE8C2F8F710E94A10BFACE8D
:1015200095E09F1508F4F6CEF6CF8C2F8F71111130
:10153000CDCF0E94880BEECE112329F08C2F8F7116
:101540000E947F0BE7CE0E947B0BE4CE112349F073
:10155000CF718C2F0E94880B63E08C2F0E94DB0FD1
:10156000D9CE81E00E94F90FE1E0EF1508F0D2CE6C
:1015700082E00E94F90FCECEF1101BCF8C2F8F711D
:10158000A5CF0F931F93CF93DF93EC0168817981EF
:101590008A810E946F0C8C010E94BF0B0E94580B25
:1015A000B801CE010E94EF08DF91CF911F910F91FA
:1015B0000895CF93DF93EC018B819C81892B29F0D7
:1015C0008881998189238F3F51F4DF91CF910895CC
:1015D000CE010E94C10ACE010E949B05F6CFCE012A
:1015E0000E94ED058111F4CF0E944E0F882369F30C
:1015F0008A81882351F38091FF0282FFE6CF82E047
:101600000E94F90FE2CF0E94750F0E94960F0E9470
:101610006E190E94521908950E943D0F0E94030BFB
:1016200008950E94650F0E940C0B089592959F707B
:10163000963091F058F4925F9F70923058F4803F4A
:1016400019F030F4883E30F481E008959A5FF4CFC9
:10165000843FD1F380E00895883EB0F3813FD1F715
:10166000F3CFFC01808191810E94640C0E94160BD3
:101670000895A5E0B0E0EFE3FBE00C94B8342596C4
:10168000E2E00C94D434A6E0B0E0E9E4FBE00C9492
:10169000B8342696E2E00C94D43408950E944D0BA1
:1016A00008950E944E0B8093E3010E94030B08955E
:1016B00008950E94510B08959091E301892B0E9497
:1016C000510B08959091E30189230E94510B0895D5
:1016D0009091E30189270E94510B08950E944D0BC0
:1016E00008950E946E0B08950E94710B8093E20191
:1016F0000E94030B089580E00E94740B089591E00E
:1017000001C0990F8A95EAF7892F0E94740B0895FA
:1017100021E030E001C0220F8A95EAF78091E201D2
:10172000822B0E94740B089521E030E001C0220F4B
:101730008A95EAF720958091E20182230E94740B3A
:10174000089521E030E001C0220F8A95EAF78091E8
:10175000E20182270E94740B08959091E201892B87
:101760000E94740B08959091E20189230E94740BEA
:1017700008959091E20189270E94740B08950895BD
:10178000262F277091E001C0990F2A95EAF723E0F0
:10179000769567952A95E1F7FB01EE0FFF1FE60F9F
:1017A000F71FE40FF51F50E040E0682F70E08191D3
:1017B000DF0111979B01042E02C0369527950A94EC
:1017C000E2F7217021952827292328272C934F5FA2
:1017D0005F4F4330510559F70895A82FA77023E0B4
:1017E000969587952A95E1F7FC01EE0FFF1FE80F0C
:1017F000F91FE60FF71F50E040E080E0219130E054
:101800000A2E02C0369527950A94E2F721703327F5
:10181000042E01C0220F0A94EAF7822B4F5F5F4F1C
:101820004330510559F70895262F9C3068F48830CD
:1018300058F438E0939FB0011124680F711D4EEBEE
:1018400051E0822F0E94C00B08959C3070F48830C4
:1018500060F448E0949F900111246EEB71E0820FD8
:10186000932F911D0E94ED0B089580E00895CF9273
:10187000DF92FF920F931F93CF93DF936C01009140
:10188000E2018091E301082BC7E0D0E010E0FC2EDC
:10189000C8010C2E02C0959587950A94E2F780FD49
:1018A0000CC02197A0F7F12C8F2DDF91CF911F91C4
:1018B0000F91FF90DF90CF900895B6018C2F0E947A
:1018C000A712019771F3F0CFCF93DF93EC010E9441
:1018D000370CBE010E94A712DF91CF9108951F938C
:1018E000CF93DF93EB019091BD01992339F0CB01A8
:1018F0000E94640CDF91CF911F910895882369F0B5
:10190000CB010E94370C182F682FCE010E94140CB7
:10191000BE01812F0E94A712EDCFCB010E94250CA2
:10192000182FF6CF1F93CF93DF93C091E40116E0F9
:101930008091E5018C1304C0DF91CF911F91089530
:10194000D0E01C9FF0011D9FF00D1124EA51FE4FC5
:101950004081518162817381848195810E94430B12
:101960002196C770E5CF4091160250911702609101
:1019700018027091190280911A0290911B020E9424
:10198000430B08951F93CF93DF9380911B02807FB9
:1019900009F049C080911802882309F444C080915D
:1019A000E401C091E5016091160270911702A091C7
:1019B0001902B0911A02D62FD72316E0C81799F151
:1019C00090E0109711F0DF3F19F401968770F6CF81
:1019D000189F9001199F300D1124F901EA51FE4F13
:1019E00041814713F2CF40814613EFCF428141112D
:1019F000ECCF438154814A1B5B0B483C510528F7CF
:101A000080911B028F70806180931B02F901E55168
:101A1000FE4F80818F708061808386E192E00E941A
:101A2000D90A0E94920CDF91CF911F910895A1E1F4
:101A3000B0E0EDE1FDE00C94B0348C0185E0F801FC
:101A4000DE011D9601900D928A95E1F7F801E28082
:101A500086E1C82E82E0D82E6091190270911A0298
:101A60006115710509F44EC190911602209117027B
:101A7000892F82238F3F09F445C140815181A38082
:101A8000B480F0901802F501E61BF70BFF2009F473
:101A9000EAC080911B02382F307FE83CF10508F046
:101AA000A3C031116DC0FE2C251316C0941314C0B1
:101AB000E11012C08F70806180931B020E94B30CF2
:101AC000C6010E94D90A80911B02F80185838F2DDF
:101AD0006196EAE00C94CC34A114B10429F0842F6F
:101AE00085238F3F09F027C180E0F82FF170DF2EAA
:101AF00080FF3CC08091E4012091E50136E0821333
:101B000015C04D875E878D859E850E94640C292FA8
:101B100022952F702230F0F0243018F59F70F1F0EC
:101B2000F8019581907FD1F4D12C1EC090E0389FB0
:101B3000F001399FF00D1124EA51FE4F61816513C8
:101B400006C06081641303C06281E6120FC0019673
:101B50008770D5CF9F7011F0882331F3805E883075
:101B600018F3C8010E94D90AFD2CB1CFEE2009F468
:101B7000AECF80911B02816080931B02F12CA7CF16
:101B8000251306C0941304C0F801EE2009F487C0A1
:101B9000C8010E94310B882319F1EE2009F18091D0
:101BA0001B02803270F020911602309117023887A4
:101BB0002F831986BB86AA868C87CE0107960E9442
:101BC000D90A86E0F801A6E1B2E001900D928A956B
:101BD000E1F70E94C20C0E94B30CFF24F39477CF6C
:101BE000C8010E94D90AF9CF311113C07A2DB98AE0
:101BF000A88A6E2D89890E94390B86E192E00E94A5
:101C0000D90A86E0F60111928A95E9F70E94B30C91
:101C1000B5CF25130FC094130DC0E1100BC0F80110
:101C20008583C8010E94D90A86E0F60111928A953F
:101C3000E9F74DCFC8010E94310B882389F2EE20CD
:101C400079F280911B02803208F4BBCF20911602FA
:101C5000309117023A8329831B82BD82AC828E8326
:101C6000CE010196ACCFE83CF10508F03EC0FE2C59
:101C7000EE2009F4B5CF25132AC0941328C0809113
:101C80001B0280FD1BC0982F907FC1F0F801858357
:101C9000903F31F0982F907F905F8F70892B8583D4
:101CA000C8010E94D90A86E0F801A6E1B2E00190DD
:101CB0000D928A95E1F70E94B30C09CF86E0F801F6
:101CC000A6E1B2E001900D928A95E1F700CFC8013C
:101CD0000E94310B811175CF80911B02816080932E
:101CE0001B02C8010E94D90AF2CE7A2DB98AA88AAD
:101CF0006E2D89890E94390B86E0F60111928A9532
:101D0000E9F7D9CFEE2009F46BCFC8010E94310B5F
:101D1000F82E882309F464CF86E0F801A6E1B2E04A
:101D200001900D928A95E1F786E192E00E94EA0720
:101D30000E94C20CC0CF81E08E25D7CEACE0B0E0CF
:101D4000E4EAFEE00C94B7344F83588769877A87BA
:101D50008B879C87CE0107960E94170D882369F018
:101D60008A859B85892B39F04F815885842F85235F
:101D70008F3F09F06BC016E05FC086E0FE0137962A
:101D8000DE01119601900D928A95E1F78A859B8577
:101D9000892B89F38F81988589238F3F61F3209167
:101DA000E50130E0C9010196877099274091E4016F
:101DB0004817190671F40E94110B1092E501109258
:101DC000E40186E0E6E1F2E0DF011D928A95E9F7A1
:101DD000D2CF96E0929FD001939FB00D1124AA51CB
:101DE000BE4FFE01319601900D929A95E1F78093D6
:101DF000E5010E94920CBFCF819FC00111248A513E
:101E00009E4F0E94170D8823E9F0E091E4011E9F88
:101E1000F0011124EA51FE4F4081518162817381AA
:101E2000848195810E94430B8091E40190E00196AA
:101E3000877099278093E4018091E4019091E501F6
:101E40008913DACF2C96E3E00C94D33469857A8534
:101E50008B859C850E94430B8ECF682F8091140147
:101E6000909115010E94512B0895682F80911401C3
:101E7000909115010E945F2B08958091140190911B
:101E800015010E946D2B089580913C0285958595E2
:101E90008595089580913C028770089590913C0249
:101EA000977081E009F480E0089580915F020895C1
:101EB00090915F02892B80935F02089580959091A5
:101EC0005F02982390935F02089510925F02089535
:101ED00090915E02892B80935E0208958095909187
:101EE0005E02982390935E02089510925E02089518
:101EF00080913D02089508950E947B0F089590916E
:101F0000FF0292FF08C090913D02981721F0809344
:101F10003D020E947C0F089580913D02882329F0A4
:101F200010923D0280E00E947C0F0895CF93DF93D2
:101F3000E0911401F091150180915F028083E0919E
:101F40001401F0911501808190915E02892B8083AC
:101F500090913D02992381F0E0911401F0911501D7
:101F60008081892B808380911401909115010E94BA
:101F7000BD2A81110E948C0FC0911401D0911501CE
:101F800040E250E06CE172E0CE010E94F834892B0F
:101F900059F080E2FE01ACE1B2E001900D928A9529
:101FA000E1F7CE010E94692ADF91CF91089508954B
:101FB0000E94D70F08959091FF0292FF11C098E000
:101FC000899F90011124622B60933C020E94880B30
:101FD00080913C028595859585950E94D80F08953E
:101FE0000E94880B089510923C0280E00E94D80F56
:101FF000089590913C028095892380933C02282F7C
:10200000277091F4282F082E000C330B921713061B
:1020100059F09091FF0292FF07C0859585958595AF
:102020000E94940B0E94F30F08959091FF0292FB7F
:10203000222720F9281769F080FB92F99093FF027C
:102040008091FE029091FF020E94671082E00E9440
:10205000F90F08958091FF0282FB882780F991E0B3
:1020600089270E941510089581E00E941510089597
:1020700080E00E94151008956FEF7FEF90E080E000
:102080000E944035089590E080E00E941C35883E13
:102090009E4F19F40E943622089580E0089582E050
:1020A00090E00E940E35089583E090E00E940E3586
:1020B0000895CF9384E090E00E940E35C82F82E20D
:1020C00090E00E940E35982F8C2FCF910895CF93DA
:1020D000C92F682F84E090E00E9422356C2F82E2A5
:1020E00090E00E942235CF910895AB01BC018FE0B2
:1020F00090E00E9434350895AB01BC0183E190E08B
:102100000E943435089560E070E0CB010E947C109D
:10211000089560E070E0CB010E9475100E9483106A
:10212000089568EE7EEF90E080E00E94403560E028
:1021300082E090E00E94223560E083E090E00E941F
:1021400022351092E30160E084E090E00E942235A5
:1021500064E082E290E00E94223560E085E090E059
:102160000E94223560E086E090E00E9422356FEF09
:1021700087E090E00E94223540E050E0BA0188E01C
:1021800090E00E94343560E08DE090E00E942235BE
:1021900040E050E0BA0188E190E00E94343560E010
:1021A00087E190E00E94223540E050E0BA018CE1E6
:1021B00090E00E94343570E060E080E290E00E94A0
:1021C000403540E050E0BA0188E190E00E943435AB
:1021D00080E00E944F220E947F220E948910089571
:1021E0000E9491100895682F8EE090E00E942235A1
:1021F00008950E943A2C6093740270937502809344
:1022000076029093770260937002709371028093CC
:1022100072029093730208950E943A2C60937402A4
:1022200070937502809376029093770260936C02AC
:1022300070936D0280936E0290936F0208950895DB
:1022400008950E942011089508950E942411089570
:1022500081ED93E10E944B2A0E941F110E942111DF
:1022600008950E94B0150895089508950E943411AC
:102270000E94351108950E94ED130E94970708955A
:102280000E94252C0E9486130E948F220E94CD1549
:102290000E9410150E943B110E94E8230E945320C7
:1022A0000E94CD260E94D7150E9425110895AAE00C
:1022B000B0E0EDE5F1E10C94AF340E943315C82E87
:1022C00081110E94F91080E6A82E82E0B82E10E05D
:1022D00000E0902E802F0E940F14E82EF501F1905F
:1022E0005F01F816B9F18091780281FD0E94151402
:1022F0008F2D8E25D12CFF24F394982F9F2129F127
:102300000E943111882399F0DE829F82EF2081E0C4
:1023100009F480E088870E942E2C8160782F9A87AC
:1023200089874E815F8168858A850E94B507F8019B
:10233000E05AFD4F8081F826F08281E0C11001C093
:1023400080E02A96EBE00C94CB34D394FF0CF8E0B9
:10235000DF12D3CF0F5F1F4F0C30110509F0B9CF3B
:102360008FEF89838A831B820E942E2C8160782FB5
:102370009D838C8349815A816B818D810E94B50731
:10238000DCCF0E9457110E94B0150E9499200E9434
:10239000FA2681110E940C110E9490190E94AA072E
:1023A0000895CF93DF930E94AC12EC01811522E5D2
:1023B000920778F5811531E5930708F098C08F3FB3
:1023C000910509F0B8F4803F910508F06FC0853A97
:1023D000910540F48430910548F4019739F0D0E03C
:1023E000C0E004C0805E91090897C8F7CE01DF9174
:1023F000CF910895811540E5940708F05CC0C115A0
:1024000080E4D80708F054C0C11590E2D90770F3F2
:10241000E6CF811526E5920718F5811535E5930776
:1024200008F07DC0811544E5940708F073C0982F2B
:10243000969596959E0123703327C115D34508F4D0
:102440005BC0C1E0D0E002C0CC0FDD1F2A95E2F7EF
:1024500030E2939FC0011124C82BD92BDA68C6CF74
:10246000C1159AE5D90778F4C11529E5D20708F016
:1024700060C0C11538E5D30708F4B1CFDC2FCC27F5
:10248000C06FD06AB3CFCE0190568115904208F04C
:10249000A6CF8D2F8F710E94431390E0982F88272D
:1024A00088279F719C012C2BE90141C0D0659ECFEC
:1024B000DF70D06A9BCFE4E096958795EA95E1F7C7
:1024C00083702C2F26952695237090E2299F9001EA
:1024D0001124382B8C2F8370C1E0D0E002C0CC0FC8
:1024E000DD1F8A95E2F7C22BD32BDC687FCFD82F74
:1024F000CC27C16FD06A7ACFC1E0D0E002C0CC0F48
:10250000DD1F2A95E2F720E2929FC0011124C82B1B
:10251000D92BEBCFD82FCC27C46FD06A67CF0E94BE
:102520004313C82FD0E0DC2FCC27CC27DF71D0623B
:102530005DCF8C2F8F700E94431334E0D695C795E2
:102540003A95E1F7CF709C2FEC01D0694FCF0E94F4
:102550000E260E94D111089582389105B1F1B0F490
:102560008133910509F475C048F48932910509F465
:1025700069C08A32910509F473C0089585339105C5
:1025800009F459C08933910501F10895833E9105FD
:10259000A9F138F4803E9105F9F0823E910549F1A8
:1025A0000895863E9105A9F1873E9105C9F1843EC3
:1025B000910519F52091FF0221FF1FC08091FE02B5
:1025C00084FD14C087EE90E008952091FE022370F0
:1025D000A1F080EE90E008952091FE0220FD47C01A
:1025E0003091FF0230FF09C024FF44C090E080E03A
:1025F00004C02091FE0222FDF7CF08952091FE0233
:1026000022FD3BC03091FF0230FDE3CF24FFF5CF28
:10261000EDCF2091FE0223FFF0CF24FDE7CFD2CFF4
:102620002091FE0223FD2CC03091FF0231FFEECF3E
:1026300084EE90E008952091FE0225FFDECF89E22E
:1026400090E008952091FE0225FFD7CF85E390E02A
:1026500008952091FE0226FFD0CF8AE290E00895EF
:102660002091FE0226FFC9CF81E390E0089589E31F
:1026700090E0089583EE90E0089582EE90E0089552
:1026800086EE90E008959091FE0292FF06C0282FFA
:1026900028712830F9F4877F846093FF06C0282FC3
:1026A00028712831F1F4877E84612091FF0220FF98
:1026B00006C0382F38713830D9F4877F816021FF08
:1026C00006C0282F28712831D1F4877E816194FDBE
:1026D000877E0895282F24712430F9F68B7F886037
:1026E000DCCF282F2471243101F78B7E8861DDCF68
:1026F000382F3171313019F78E7F8860E0CF282F65
:102700002171213121F78E7E8861E1CF1092FA028A
:102710001092FB021092FC021092FD020895CF92DB
:10272000DF92EF92FF926B017C010E94B015811144
:102730000EC00E943A2CC61AD70AE80AF90AC092BB
:10274000FA02D092FB02E092FC02F092FD02FF90AE
:10275000EF90DF90CF9008950F931F930E94B015D4
:10276000882329F00E943A2C1F910F9108950E940E
:102770003A2C0091FA021091FB022091FC02309158
:10278000FD02600F711F821F931FEECF0E94B015D4
:10279000882319F00E942E2C08950E94AC13CB01BF
:1027A000089580E008950E943C1008950E9433151A
:1027B0008FE39CE90197F1F700C000000E943315F8
:1027C00080E00E940F1480FF04C00E94D3130E9477
:1027D000952C08950E94D61308950E9443108111EC
:1027E00002C00E94F0100E944F10809378020E9455
:1027F00059109093FF028093FE020E94EA130E94F8
:1028000054100E94590B8091E2010E94710B0895AF
:1028100008950E94081408950E9455040895E82F11
:10282000F0E0E35FFC4F80810895089580EA8A9587
:10283000F1F7089500C008950E94161408950895B0
:102840000E941F140895A6E0B0E0E9E2F4E10C94C0
:10285000B4340E94B015F82E60911903882309F44E
:1028600040C086E0E82E8E010F5F1F4FF8018E2DCD
:1028700011928A95E9F7862F90E0B801835F9C4F0B
:102880000E94E5158823B9F08091000390E046E0AE
:1028900050E0B801835F9C4F0E94F83421E0209300
:1028A0007902892B91F4F12C0E94D1058F2D269667
:1028B000E6E00C94D034809179028823A1F3F801EA
:1028C0001192EA94E9F710927902A0910003B0E026
:1028D000A35FBC4F86E0F80101900D928A95E1F765
:1028E000E3CF70E0635F7C4F8091000390E0835FF3
:1028F0009C4F0E946C160E942014D8CFF894E82FA9
:10290000E295EF70F0E031A1282F2F7081E090E088
:1029100001C0880F2A95EAF7982F9095932391A3E9
:1029200092A1892B82A378940895CF93DF93C5E673
:10293000D1E089918F3F11F00E947E1481E0CD3665
:10294000D807B9F7CDE6D1E089918F3F11F00E9409
:102950007E1481E0C337D807B9F7DF91CF9108958E
:10296000B0E0A0E0E6EBF4E10C94B2347C01162F69
:10297000042FC62FD0E0CE018B599E4F6C01EC0185
:1029800028812F3F09F444C0F894E22FE295EF70BC
:10299000F0E031A12F7081E090E001C0880F2A950E
:1029A000EAF7932F982B91A392A18095892382A374
:1029B00078940E941A14ADE6B1E0F70143E751E0C4
:1029C000F12C602F60959D9180819F3F31F1292FDF
:1029D00022952F7030E0E90128A130E09F7002C0FD
:1029E000359527959A95E2F720FD17C0802B8083B7
:1029F000FF24F39431964A175B0729F7F60180818B
:102A00008F3F11F00E947E146F2D812F0E941C14A5
:102A1000CDB7DEB7E8E00C94CE3486238083EACFCE
:102A2000809116018091160196E0811190E09093BB
:102A3000190386E0891B809300030E9495148CE0A3
:102A4000EDE0F3E0DF01982F1D929A95E9F7E1E0C0
:102A5000F3E0DF011D928A95E9F786E00E947A157E
:102A60000E94CE050895ACE0B0E0E9E3F5E10C94F6
:102A7000B4348E010F5F1F4F8CE0F80111928A95DC
:102A8000E9F7F12CEE24E3944E2D6F2DC8010E943E
:102A9000B014F394EE0CF8E0FF12F6CF4CE050E0E7
:102AA000B80181E093E00E94F8347C0121E0892B99
:102AB00009F420E0E114F10441F08CE0F801A1E018
:102AC000B3E001900D928A95E1F76091190370E0EF
:102AD000635F7C4F46E081E093E00E947B1581E0DC
:102AE00090E0E114F10411F40E9423142C96E6E026
:102AF0000C94D0340895FF920F931F93CF93DF93DC
:102B0000F82E092F162FD72FC42F222349F081E04A
:102B100080937C020E942E2C90937B0280937A02F9
:102B200080917C028823A1F080917A0290917B02AF
:102B30000E94462C059760F0EF2DF02FA12FBD2F9E
:102B4000CE0FDF2FD11DEC17FD0739F410927C0258
:102B5000CDB7DEB7E5E00C94D13481918D93F3CFFE
:102B600080917F02811107C00E940534882351F0B3
:102B700081E080937F0281E090917F02913009F0A3
:102B800080E0089582E080937F020E940034F3CFBA
:102B90000E94B01591E0892708950E94C81580937E
:102BA00016010E94B01581110E941B1608950E9403
:102BB000B015811102C00E941E16089581E0909107
:102BC00080029A3008F080E008950F931F93CF930E
:102BD000DF93EC018B01809180028A30B8F4B80158
:102BE000CE010E946916C82F811122C080918002F7
:102BF0008F3FB9F40E942E2C90937E0280937D0229
:102C00008C2FDF91CF911F910F91089580917D02BC
:102C100090917E020E94462C843F914000F7C0E0D4
:102C2000EFCF8F5F809380028A3020F7C1E0E8CF3A
:102C300010928002E5CF0E94E92808950E94EC28B6
:102C40000895B0E0A0E0E7E2F6E10C94B334790136
:102C5000C82F880FDD0B41155105A9F0FE0193E047
:102C6000EE0FFF1F9A95E1F7E95EFE4F8181928199
:102C70008F579D4F208130E04217530708F49A0187
:102C8000A9010E940535CE010E94D529D82E88239E
:102C9000D1F001151105B9F083E0CC0FDD1F8A9545
:102CA000E1F7FE01E95EFE4F438150E0041715078E
:102CB00008F4A801C95EDE4F6C817D816F577D4F9E
:102CC000C7010E9405358D2DCDB7DEB7E7E00C9426
:102CD000CF340E94851708950E94A6170895A4E096
:102CE000B0E0E5E7F6E10C94B6346091A002709193
:102CF000A1028091A2029091A3020E94552C11E0A2
:102D0000643671058105910518F10E94AC136E5F60
:102D10007F4F8F4F9F4F69837A838B839C8310E013
:102D200000E030E020E044E050E0BE016F5F7F4F04
:102D300084E00E942116182F882351F00E943A2C1B
:102D40006093A0027093A1028093A2029093A302C9
:102D5000812F2496E4E00C94D234A1E0B0E0E3EBC0
:102D6000F6E10C94AD34762E4A015901680101E078
:102D700010E09E012F5F3F4F50E040E070E060E0C8
:102D80000E942116182F882399F1F4016081718126
:102D9000828193810E94552C6436710581059105CD
:102DA00000F18701950150E040E070E060E0872D80
:102DB0000E942116B82EB701C6010E94E92311E036
:102DC0009981981310E01B2139F00E943A2CF401EC
:102DD0006083718382839383812F2196EDE00C942D
:102DE000C934B701C6010E94E92399818913D9CF5B
:102DF000A701B601C5010E940535EECFA1E0B0E004
:102E0000E4E0F7E10C94B434009173011091740183
:102E1000085F1F4FEE24E394F12C9E012F5F3F4F7C
:102E20004CE952E063E082E00E94AD16182F88233F
:102E300021F0CE0101960E946B27812F2196E6E0BA
:102E40000C94D034A6E0B0E0E8E2F7E10C94B234A0
:102E50006B0100917301109174010F5F1F4F86E0A9
:102E6000E82EF12C9E012F5F3F4F48E952E061E0D0
:102E700080E00E94AD16882349F096E0FE0131966D
:102E8000A2E9B2E001900D929A95E1F796E0E2E9AD
:102E9000F2E0D60101900D929A95E1F72696E8E0CE
:102EA0000C94CE34B0E0A0E0E8E5F7E10C94B03447
:102EB0007C015B016A010E94DE1501E010E08823BD
:102EC00011F00AE010E0C1E0D0E0B501C701F60161
:102ED0000995811104C021960C171D072CF4CDB75C
:102EE000DEB7EAE00C94CC34CC9F9001CD9F300D3E
:102EF000300D112490E080E045E34A95F1F70000A1
:102F0000019682179307C1F7E0CF0F931F93CF93DA
:102F1000DF93EC018B0142E257E10E9452178111CD
:102F200006C080E0DF91CF911F910F9108954EEF81
:102F300056E1B801CE010E945217882391F34FE663
:102F400056E1B801CE010E945217ECCFA1E0B0E0EB
:102F5000ECEAF7E10C94B63400917301109174011E
:102F6000C801019626E0FB01DC0101900D922A9533
:102F7000E1F766E070E00E94E923F8018083CE016A
:102F800001960E9460278981F801808761E070E0E6
:102F9000CE0101960E94E923F8018783618572853D
:102FA0008385948500918E0210918F02209190026A
:102FB00030919102601771078207930751F0609377
:102FC0008E0270938F0280939002909391020E94E0
:102FD0008F132196E4E00C94D2340E945F2E0E945D
:102FE00040110E946C2E08950E94712E0E94C11102
:102FF0000E948B2E08950E94C72B0E94452E0E948E
:1030000028110E94ED170E94F4170E943611FBCF81
:103010008091AC0280FF0DC06091430170E0660FAB
:10302000771F6038710570F56115710569F1862F9C
:10303000089581FF07C06091430184E0689FB0015B
:103040001124EFCF6091430182FD0AC08091AB0251
:103050008823A9F02091420160914301821710F06A
:1030600088E0ECCF869FC001112433E0880F991FC0
:103070003A95E1F7622F70E00E943434D2CF68E0D5
:1030800070E0D5CF8FE7089581E008958091AC027C
:1030900080FF0CC06091400170E075956795759553
:1030A00067956115710549F1862F089581FF06C066
:1030B0006091400170E075956795F3CF6091400194
:1030C00082FD0BC09091AA029923A1F060913F016B
:1030D00080914001961738F0682F70E060387105D4
:1030E00000F38FE70895899FC001112470E00E94CA
:1030F0003434F4CF61E070E0D7CF81E00895803FB1
:1031000031F40E94081881958093B0020895813FA0
:1031100019F40E940818F8CF823F31F40E94081871
:1031200081958093AF020895833F19F40E94081897
:10313000F8CF893F29F40E9446188093B102089580
:103140008A3F21F40E9446188195F7CF8B3F31F4D6
:103150000E94461881958093B20208958C3F19F41D
:103160000E944618F8CF9CE0980F953070F4845F69
:10317000990B21E030E001C0220F8A95EAF7809197
:10318000AE02822B8093AE0208958D3F31F4809180
:10319000AC0281608093AC0208958E3F21F480914F
:1031A000AC028260F7CF8F3FB9F78091AC028460A8
:1031B000F1CF4091AF02803F59F48091B00287FF78
:1031C0000DC01092B00241110BC01092AB0208C0AA
:1031D000813F81F48091B00218169CF3442381F062
:1031E0008091B1029091B202892B09F05AC01092DD
:1031F000AA020895823F49F447FFF0CF1092AF0230
:103200008091B0028111ECCFE0CF833F19F4141606
:10321000ACF3E4CF9091B102893F29F41916F4F68A
:103220001092B102DBCF8A3F19F497FFD7CFF8CFC6
:103230009091B2028B3F29F497FFD0CF1092B20247
:10324000CDCF8C3F19F41916CCF3C8CF9CE0980F62
:10325000953090F4845F990B21E030E0B90102C011
:10326000660F771F8A95E2F7CB0180959091AE02A9
:1032700089238093AE02B2CF8D3F31F48091AC02AE
:103280008E7F8093AC02AACF8E3F21F48091AC0256
:103290008D7FF7CF8F3F09F0A1CF8091AC028B7F5C
:1032A000F0CF08950E942E2C9C019091AF02809146
:1032B000B002982B21F03093A9022093A80290919C
:1032C000B1028091B202982B21F03093A702209393
:1032D000A6028DEA92E00E94832A089586E0EDEA34
:1032E000F2E0DF011D928A95E9F71092AB0210928D
:1032F000AA021092AC020895FC01828181110EC0D5
:10330000838181110BC08481811108C091E0858186
:10331000811101C090E0892F8170089581E0FCCF78
:10332000A6E0B0E0E6E9F9E10C94B73486E0EDEA16
:10333000F2E0DE01119601900D928A95E1F710926C
:10334000AF021092B0021092B1021092B2028B81C1
:103350009C81892B89F08091A8029091A9020E94FA
:10336000462CAC019091AB029923C9F180914401A4
:103370008417150608F440C08D819E81892B91F039
:103380008091A6029091A7020E94462CAC019091D8
:10339000AA02992309F471C080914101841715068E
:1033A00008F479C0BE016F5F7F4F8DEA92E00E9402
:1033B0007F2B811105C08DEA92E00E947C1981115A
:1033C0000E94521986E0FE013196ADEAB2E001900A
:1033D0000D928A95E1F72696E3E00C94D334209180
:1033E000A5028AE0289F900111242417350720F6B2
:1033F0009F5F9093AB0202C09F3FD1F71B811123C7
:1034000059F00E9408189FEF11160CF491E0899F63
:10341000802D11248093AF021C81112359F00E944A
:1034200008189FEF11160CF491E0899F802D11244C
:103430008093B0023091AF02332309F49DCF2091E5
:10344000B002222309F498CF45EB3403C0011124C4
:10345000992359F09093AF0245EB24039001112476
:10346000332339F03093B00287CF81E08093AF02ED
:10347000F3CF81E08093B0027FCF2091A4028AE055
:10348000289F900111242417350708F08BCF9F5FE8
:103490009093AA0202C09F3FD1F71D81112359F0DA
:1034A0000E9446189FEF11160CF491E0899F802D21
:1034B00011248093B1021E81112359F00E944618F5
:1034C0009FEF11160CF491E0899F802D11248093B9
:1034D000B2023091B102332309F464CF2091B202D9
:1034E000222309F45FCF45EB3403C0011124992353
:1034F00059F09093B10245EB24039001112433233A
:1035000039F03093B2024ECF81E08093B102F3CF15
:1035100081E08093B20246CFEF92FF920F931F9308
:10352000CF93DF93EB01E82FD1110EC0442321F09C
:10353000F0E0E652FA4FE4916E2F7E2F8E2FCDB73A
:10354000DEB7E6E00C94D0340D2F10E0282F30E0E9
:10355000442329F026523A4FF901249130E0F6E055
:10356000CF9FC0011124EFEFF0E0BF010E94203493
:10357000AB018C2F90E0880F991FA5E5A49FB001A7
:10358000A59F700D1124861B970B982F990F980FEC
:10359000BF01601B710B629FD001639FB00D729FD2
:1035A000B00D11248B2F9D9FB0011124672F772719
:1035B000EF01C61BD70BBE01629FE001639FD00DD8
:1035C000729FD00D11247F01E91AF108E09EB0012D
:1035D000E19E700DF09E700D1124672F7727E61B7A
:1035E000F70BE29F8001E39F100DF29F100D112455
:1035F000E12F722F4230510599F048F441155105E1
:1036000069F04130510581F0EB2F8D2F07C0443018
:10361000510569F080F046305105B1F76E2F8FCF1C
:10362000E22F7B2F812FFACFE22F7D2FF7CFEB2FC9
:10363000822F712FF3CF7B2F822FED2FEFCF41E021
:103640000E948C1A089508950E941F1B0895CF931D
:10365000DF93762FE901682F842F0E94241B798342
:1036600068838A83DF91CF910895453608F044E658
:103670000E94271B089580911A03982F9E7F61F462
:103680008170826080931A0380911D03853618F043
:1036900084E680931D0308958A34B0F381708864B2
:1036A000F1CF88E090E00E9416350895CF92DF9226
:1036B000EF92FF926B017C010E943B1BB701A601B8
:1036C00088E090E00E943435FF90EF90DF90CF903B
:1036D000089560911A0370911B0380911C039091CF
:1036E0001D030E94561B0895EAE1F3E083E0808306
:1036F00011828FEF828384E68383148260817181DB
:10370000828193810E94561B089580911A0380FF45
:1037100002C08695089580E0089590911E0393302D
:1037200018F49F5F90931E03882351F060911A0351
:1037300070911B0380911C0390911D030E94561BE6
:10374000089581E00E948D1B089590911E03992396
:1037500019F0915090931E03882351F060911A0341
:1037600070911B0380911C0390911D030E94561BB6
:10377000089581E00E94A51B089580911E0308957D
:1037800080931E03662351F060911A0370911B030E
:1037900080911C0390911D030E94561B089560E0C8
:1037A0000E94C01B089580911B03089580911C0303
:1037B000089580911D03089570E00E940A220895E3
:1037C000CF92DF92EF920F931F93CF93DF93CDB7FA
:1037D000DEB7C250D1400FB6F894DEBF0FBECDBFEA
:1037E0006091490180911A0380FF37C0E4E8F5E059
:1037F0009E012F5F3F4F8E010D5F1E4FC901A491A7
:103800004A2F50E0DA01AA0FBB1FA40FB51FA15E1B
:10381000BC4FCD90DD90EC90D901CD92DD92ED9230
:103820009D013196A017B10751F720914801B3E0EF
:103830002B9F800D911D11240E94DC1BCE5FDE4F5B
:103840000FB6F894DEBF0FBECDBFDF91CF911F91B1
:103850000F91EF90DF90CF90089580914A01909161
:103860004B0123E0829FF0011124E15EFC4F891798
:1038700008F0BCCF1182108212828F5F3396F7CF8F
:1038800090911A0390FF0EC090914A0120914B0134
:1038900033E0939FF0011124E15EFC4F921718F082
:1038A0000E94E01B08958183608342839F5F33966B
:1038B000F5CFA3E0B0E0EFE5FCE10C94B8349091D3
:1038C0001A0390FF0AC09E012F5F3F4F0E94351BD5
:1038D0004B8169818A810E94401C2396E2E00C940E
:1038E000D434CF93DF93EC01EC81F0E0E158FB4F4F
:1038F0004491EAE1F3E0628181810E94591C8C814C
:103900008F5F8C83DF91CF910895CF93DF93EC018C
:10391000EAE1F3E0438162818C810E94591C8C8131
:103920008F5F8C83DF91CF910895A3E0B0E0EBE946
:10393000FCE10C94B6348C018091B30281110AC071
:103940009E012F5F3F4F44E66FEF0E94351B8A8137
:103950008093B302F8016481613069F08091B30211
:1039600040E0662361F040E0623011F44091B30220
:1039700080E060E004C06091B30240E080E00E941B
:10398000401CF801848190E0019663E070E00E94A1
:10399000343484832396E4E00C94D234A3E0B0E082
:1039A000E4EDFCE10C94B134082FD62EE42EC22EA7
:1039B00090911A0390FF29C0E92FE695AE2FB0E051
:1039C000AB58BE4F8C918093BF029E7F923009F519
:1039D0009E012F5F3F4F802F0E94351B4B816981D5
:1039E0008A810E94401C00931B03D0921C03E0922A
:1039F0001D03CC2051F060911A0370911B0380913C
:103A00001C0390911D030E94561B2396E9E00C9421
:103A1000CD34823019F4E0901D03E5CF863019F4DF
:103A200000911B03E0CF8930D9F38931E1F6E951E8
:103A30006E2F6170B62EE695F0E0E158FA4F1491C2
:103A4000F12C60914C01F61618F00E94E01BCBCFD0
:103A5000F19EC001112470E00E942034802FB1102B
:103A600014C0860F20914A01622F6F0D7727771FB0
:103A70009B01220F331F260F371F215E3C4F4E2D17
:103A80006D2D0E94351BF394DCCF861BEBCFEAE152
:103A9000F3E09181282F4381628188E0890F0E94A1
:103AA000CE1C089581E00E94471D0895EAE1F3E0ED
:103AB0009181282F4381628188EF890F0E94CE1C5B
:103AC000089581E00E94561D0895EAE1F3E06281C5
:103AD00028E0620F08F46FEF282F438181810E9454
:103AE000CE1C089581E00E94651D0895EAE1F3E08F
:103AF000628128E0621B08F460E0282F4381818105
:103B00000E94CE1C089581E00E94761D0895EAE18E
:103B1000F3E0438128E0420F08F44FEF282F628141
:103B200081810E94CE1C089581E00E94871D089526
:103B3000EAE1F3E0438128E0421B08F440E0282F4B
:103B4000628181810E94CE1C089581E00E94981DAF
:103B5000089520E00E94CE1C0895EF92FF921F93DB
:103B6000CF93DF93EC0110E0EE24EA94F12C609106
:103B70004C01161770F00E94E01B9A818C8190FF17
:103B800027C08F5F8C83DF91CF911F91FF90EF90C3
:103B9000089520914A01422F410F5527551FCA0110
:103BA0009A01220F331F280F391F215E3C4F70E00E
:103BB000C7010E943434962F8C8140911D0360917F
:103BC0001C03199F800D11240E94351B1F5FCFCF4E
:103BD0008150D8CFB0E0A0E0E0EFFDE10C94B0342C
:103BE000FC0182810FEF80FF01E010E046E5A42E8A
:103BF00080914C01181798F00E94E01B8091B5024B
:103C0000013009F04FC0811102C080914C018150F8
:103C10008093B502CDB7DEB7EAE00C94CC34C09106
:103C20004A01C12ED12CCC0DDD2DD11DCE01880F26
:103C3000991FC80FD91FC15EDC4F198218821A82E2
:103C400034E0E32EF12CB12C8091B5028B0D873539
:103C50001CF16A2D0E941234892F082E000C990B3A
:103C6000C816D90691F480911D038E9DA0018F9DE9
:103C7000500D112455954795559547959E01609196
:103C80001C0380911B030E94351BB00EF1E0EF1A5C
:103C9000F108D1F61F5FACCF87FFDFCF90914C01C9
:103CA000890FDBCF90E0019660914C0170E00E949B
:103CB0003434AECF0F931F93CF93DF9380914A019B
:103CC00090914B0123E0829FF0011124E15EFC4FB3
:103CD000891740F1C0E0D3E060914C01C61740F174
:103CE0000E94E01B209146018091B402820F8093D4
:103CF000B40290914701920F90934701191654F422
:103D0000082E000C990B40914C014150550B841723
:103D100095071CF0219520934601DF91CF911F91CB
:103D20000F9108951182108212828F5F3396D0CF47
:103D30000C2F10E070E0C8010E94343420914A0139
:103D4000820F482F50E02091B402022E000C330B5A
:103D500002171307BCF020914701022E000C330B11
:103D6000201731077CF08D9F90011124215E3C4F7C
:103D700040911D0360911C0380911B030E94351B21
:103D8000CF5FAACFFA01EE0FFF1FE40FF51FE15E30
:103D9000FC4F118210821282F3CFB0E0A0E0E3ED7D
:103DA000FEE10C94AE34EC014C81042F10E098013C
:103DB000D8010E947F349B01AC010E9495344B01D5
:103DC0005C01E0E2F0E0E01BF10BA5E5B0E0AC0146
:103DD0009B010E9495346B017C019F01DF010E94D1
:103DE00077349B01AC010E94A0349B01AC01280DEB
:103DF000391D4A1D5B1DC701B6010E944834F22ED1
:103E0000822F90E039E23F1520F143E0249F90019A
:103E1000112435952795122F109500E085E5E82EA1
:103E2000EF1880914C01081718F10E94E01B9C814B
:103E300081E0992319F0903219F48FEF80934501B6
:103E400080914501890F8C83CDB7DEB7ECE00C94EF
:103E5000CA3425E530E0B901681B790B9B01220FBC
:103E6000331F260F371F37FFD4CF2F5F3F4FD1CFE0
:103E70008E2D01FD8F2D20914A01622F600F772733
:103E8000771F9B01220F331F260F371F215E3C4FE8
:103E9000412F60911C030E94351B0F5FC2CF0F930F
:103EA0001F93CF93DF93EC0110E000E090914C0161
:103EB0009017110609F06CF40E94E01B8C8190E0D1
:103EC0000196817099278C83DF91CF911F910F917B
:103ED000089520914A01A801420F511D9A01220F15
:103EE000331F240F351F215E3C4F4C8160911C0312
:103EF00080911B0396959017110651F04CF04423C6
:103F000049F040911D030E94351B0F5F1F4FCECF1C
:103F10004423B9F340E0F7CFEAE1F3E080818E7FFC
:103F2000808360817181828193810E94561B1092EF
:103F3000C0022FEF80E792E0215080409040E1F7EF
:103F400000C000000E94E01B0895EAE1F3E08081D8
:103F50008E7F80831092C0022FEF80E792E0215085
:103F600080409040E1F700C000000E94E01B0895EF
:103F70001092C0028091BD0281110AC081E080933D
:103F8000BD0280911A0381708093BC020E94A51F1C
:103F9000089560911A03669570E04BE050E08DE45F
:103FA00091E00E94EB34892B19F481E08093C002E8
:103FB0000E94C6139093B7028093B6020895909121
:103FC0001A0390FF2BC09170811129C092609093C9
:103FD0001A03662351F060911A0370911B038091BC
:103FE0001C0390911D030E94561B60911A03669555
:103FF00070E04BE050E08DE491E00E94EB34892BBF
:10400000A9F01092C00281E08093B90240911D0393
:1040100060911C0380911B030E94A91D08958532A5
:1040200010F09864D4CF880F982BD1CF0E94C91F6D
:10403000EACF682F90911A03969581E0890F853217
:1040400008F081E00E94DF1F089581E00E9419209E
:104050000895682F90911A0396958FEF890F09F4B0
:1040600084E20E94DF1F089581E00E9429200895C4
:1040700061E00E94DF1F0895EAE1F3E08081816042
:10408000808386950E943820089580911A0380FFCE
:1040900003C00E948C1F08950E943C20089560E098
:1040A0000E94DF1F08958091BE0281112EC00E94E0
:1040B0004310811104C00E94F0100E94741B0E94E2
:1040C000511B60931A0370931B0380931C039093FE
:1040D0001D036E7F61F40E94741B0E94511B60934C
:1040E0001A0370931B0380931C0390931D030E947B
:1040F0003B1B1092C00280911A0380FF03C086957B
:104100000E944F2081E08093BE020895EAE1F3E02F
:1041100080818160808386950E944F20089510924F
:10412000BD028091BC0281110E9486200E94C91F9D
:1041300008950F931F93CF93DF938091C00288233C
:10414000B9F18091BF02E0911A03E695E81BE09374
:10415000B802823091F5F0E0E558FB4FE491CE2FA4
:10416000D0E001E71CE18091B902882361F0109250
:10417000B9020E94C6139093B7028093B6021092C0
:10418000BB021092BA020E94C613E091B602F091EF
:10419000B7028E1B9F0B8F3F9F4750F4EC0FFD1F04
:1041A000F093B702E093B60286EB92E0F80109952E
:1041B000DF91CF911F910F910895863049F4F0E07F
:1041C000E858FB4FE491CE2FD0E005E81CE1CBCFBF
:1041D000893051F4E695F0E0EB58FB4FE491CE2F97
:1041E000D0E00DEA1DE1BFCF8F3051F4E695F0E04D
:1041F000EE58FB4FE491CE2FD0E00AEE1DE1B3CF95
:10420000853149F4F0E0E159FB4FE491CE2FD0E045
:104210000AE51EE1A8CFC8E2D0E00DEC1EE188312E
:1042200009F4A1CF833239F4EDE6F4E0C591D491DD
:1042300005E91CE198CFC4EFD1E00FE41FE184321F
:1042400009F491CFC0EDD7E003E21BE18CCFFA0176
:10425000811101C0FB0109950895CF93DF93C82F09
:10426000D62F0E94851B8C1748F00E94851B8D1746
:1042700028F40E942520DF91CF9108958C2F0E9471
:104280003820F9CF1F93CF93DF93EC01FB0112810C
:1042900011117EC00E94550F8272CC3CFCE5DF07F5
:1042A00009F49CC008F041C0C63CECE5DE0709F407
:1042B00081C0D8F4C33C9CE5D90709F471C030F43F
:1042C000C23CDC4509F469C011E062C0C43C9CE515
:1042D000D90709F46AC041E65DE162E57DE1C53CCC
:1042E000DC4591F70E94272153C0C93CFCE5DF075C
:1042F00009F46AC068F4C73CECE5DE0709F45FC066
:1043000042E75DE163E87DE1C83CDC4559F3DCCF81
:10431000CA3C9CE5D90709F45CC049EB5BE161EA62
:104320007BE1CB3CDC45F1F2CFCFC13DFCE5DF07C3
:1043300009F465C098F4CE3C9CE5D90709F457C050
:1043400008F451C0CF3CFCE5DF0709F455C0C03D7F
:10435000DC4509F0B9CF6EE089E04BC0C43D9CE577
:10436000D90709F452C058F4C23DFCE5DF0709F44F
:1043700049C0C33DDC4509F0A7CF88E135C0C53D44
:104380009CE5D90709F444C0CD35DD4509F09CCF43
:10439000812FDF91CF911F9108950E944520F8CF82
:1043A00044E350E265E270E29DCF45E250E264E30F
:1043B00070E298CF42E55DE161E67DE193CF43E8AD
:1043C0005DE162E77DE18ECF45EA5DE164E97DE193
:1043D00089CF44E95DE165EA7DE184CF41EA5BE1B3
:1043E00069EB7BE17FCF81E00E943820D1CF65E08F
:1043F00082E00E942D21CCCF68E086E0FACF64E114
:104400008FE0F7CF67E185E1F4CF62E289E1F1CF98
:1044100083E2EACF539A4BB1477F5BB15860EFB765
:10442000F8949B01220F331F260F371F280F391FC7
:104430002817390741F4EFBF8FE594E00197F1F7B2
:1044400000C000000895DC016D91CD0178E05BB9FA
:10445000000000C067FF4BB9660F000000C000C03D
:1044600000C04BB900C07A9591F7E2CF83E290E0AB
:104470000E940E35823289F484E290E00E940E356B
:10448000883059F485E290E00E940E3591E0883042
:1044900009F090E0892F8170089580E0FCCFCF93E0
:1044A000C82F6FEF811162E283E290E00E94223513
:1044B000C1110DC0CFEF6C2F84E290E00E94223535
:1044C0006C2F85E290E00E942235CF910895C8E0DC
:1044D000F2CF089586E290E00E940E35682F70E0DA
:1044E00090E080E008950895CF93C62F0E94732234
:1044F0006C2F86E290E00E942235CF91089580E0F3
:104500000E944F2260E070E0CB010E9474220E9462
:104510008E250E94692681E00E944F2208950E9404
:1045200069220E946A220E9473220E94362281110F
:1045300002C00E947F220895CF93FB01C281CC2349
:1045400009F19C0122513F452031310520F582516E
:104550000E947926C0E08C2FCF91089581E00E94BF
:10456000880B43E062E081E00E94C405F3CF81E064
:104570000E94940B43E062E081E00E94C405EBCF0F
:1045800082E0F6CF8031FFE59F0789F381319F45B7
:10459000B9F3C1E0E0CF8031EFE59E07F9F2813158
:1045A0009F45C9F682E0DBCF2FEFFC012083089501
:1045B000CF93DF93EC0188818138A9F028F480380B
:1045C00071F0DF91CF910895823881F08338C9F777
:1045D0000E94D31B89830E94D61B8A83F2CF0E943C
:1045E000D91B8983EECF0E94851BFBCF0E94BD1B88
:1045F000F8CFCF93DF93EC0188818138D9F028F48C
:10460000803869F0DF91CF9108958238F9F08338CE
:10461000C9F70E94D91B482F6A81898108C0D981B6
:104620000E94D61BC82F0E94D31B4D2F6C2F0E94B7
:10463000A91DE8CF89810E944F208981811103C083
:104640000E94A51FDFCF0E948620DCCF89810E94B7
:10465000CF1BD8CFEF92FF920F931F93CF93DF938F
:10466000EC01062FDC01ED91CD01E150E33108F0C2
:10467000ACC0F0E0EC59FA4C0C946A34198289E031
:104680008A83602FCE010E94182DCDB7DEB7E6E0F9
:104690000C94D0348981823069F0833071F081309C
:1046A000D9F40E943A2C0E9470346A837B838C83F5
:1046B0009D83E7CF0E946A22F6CF7E01B2E0EB0E27
:1046C000F11C10E0812F0E940F14F70181937F01EC
:1046D0001F5F1C30B9F7D5CF602FCE010E94D422C6
:1046E000D0CF89818230C1F76A817B818C819D81A5
:1046F0000E9470340E947422C4CF4B816A818981E8
:104700000E9450259827892798279D838C83B9CFAD
:104710002C813D813227232732274B816A81898171
:104720000E947225AECF0E948E25ABCF0E94F92247
:10473000A8CF0E94D822A5CF0E94691BA2CF0E94B9
:104740001C2689839ECF0E941E269827892798279A
:104750009A83898396CF6B8170E089819A81AE01BB
:104760004C5F5F4F9827892798270E94212689CF81
:104770006B8170E089819A81AE014C5F5F4F982711
:10478000892798270E9445267CCF0E94692679CFE9
:104790000E943D25D6CF6B8170E089819A81AE0160
:1047A0004C5F5F4F9827892798270E94C62569CFBD
:1047B0006B8170E089819A81AE014C5F5F4F9827D1
:1047C000892798270E94EA255CCF8FEF888359CFED
:1047D0000895FC01680F791F8FEF91E36E177F0733
:1047E00009F408952191822728E030E087FF06C070
:1047F000880F892721503109C9F7F0CF880FFACFE8
:10480000CF93DF93EC01FB018281882309F433C14C
:10481000C330FDE5DF07C0F5CA3F9CE5D90730F49A
:104820009E0122503C4524313105B0F50E945910BB
:104830009093FF028093FE02C1318CE5D80709F402
:10484000EEC008F069C0C930ECE5DE0709F4D5C058
:10485000C8F5C5308CE5D80709F4C7C000F5C330EA
:10486000ECE5DE0709F4B9C008F0BBC0C230DC4596
:1048700009F4ADC08091FE029091FF020E94671082
:104880000E94110B80E008C0C136EDE5DE0771F231
:10489000C53AFDE5DF0751F2DF91CF910895809190
:1048A000FE028062C7309CE5D90709F493C080916D
:1048B000FE028061C830DC4508F48CC08091FE02A5
:1048C000806488C08091FE028B7FCD30FCE5DF07DD
:1048D00009F480C098F48091FE028E7FCB309CE575
:1048E000D90709F477C08091FE028C60CC30DC459A
:1048F00008F470C08091FE028D7F6CC08091FE0232
:104900008F7ECF30FCE5DF0709F464C008F47BC07C
:104910008091FE028F7D5EC0CD3F9CE5D90709F4F2
:104920007AC050F5C531FCE5DF0709F486C098F47C
:104930008091FE02837FC3319CE5D90709F44AC008
:1049400008F471C00E94110B9091FE02892F97FB11
:1049500087F980583FC0CB3FFCE5DF0709F449C029
:1049600008F055C08091FF028160CA3FDC4509F024
:1049700081CF8093FF027ECFC130EDE5DE0709F4E1
:1049800068C0A8F4CF3F8CE5D80709F452C08091E5
:10499000FF028360C115DD4560F38091FF02982F0F
:1049A000909591708E7F892B90FB81F9E2CFC13673
:1049B000EDE5DE0709F451C0C53AFDE5DF0709F46E
:1049C00053C0C230DD4509F055CF80E043C080912F
:1049D000FE0281608093FE024DCF8091FE028260D4
:1049E000F9CF8091FE028460F5CF8091FE0288604D
:1049F000F1CF8091FF028260BCCF0E94110B8091A9
:104A0000FE028068E7CF8091FE02877FE3CF80912E
:104A1000FF028E7FAECF8091FF028D7FAACF809163
:104A2000FE028F7BD7CF0E94110B8091FE028F7701
:104A3000D1CF8091FF028C7F9CCF8091FE0282FBC0
:104A4000992790F921E0922790FB82F990FB83F956
:104A5000C1CF81E00E94F3100DCF9091FE02892F0B
:104A60008F7E94FF8061B6CF9091FE02892F8E7F5A
:104A700090FF8160AFCF81E00FCF84E0089590E197
:104A8000699FB001112450E0440F551F640F751F3A
:104A900090EC899F600D711D1124CB0187960895BC
:104AA0000F931F93CF93DF938430C8F46C30B8F426
:104AB0004830A8F40E943F258C010E940E35C82F73
:104AC000D0E0DC2FCC27C80101960E940E359E0154
:104AD000282BC901DF91CF911F910F91089590E08C
:104AE00080E0F8CF0F931F93CF93DF93122F032F04
:104AF000843078F46C3068F4483058F40E943F25D4
:104B0000EC01602F0E942235612FCE0101960E9498
:104B10002235DF91CF911F910F910895AF92BF92EF
:104B2000CF92DF92EF92FF921F93CF93DF938DEBA3
:104B3000C82E80E0D82ED0E07601C0E014C0F50188
:104B400025913491412F6C2F8D2F0E94722582E088
:104B5000A80EB11C1F5F183091F780E1E80EF11C20
:104B6000CF5FCC3019F0570110E0E9CFDF5F80EC68
:104B7000C80ED11CD43001F7DF91CF911F91FF9067
:104B8000EF90DF90CF90BF90AF900895EF92FF929B
:104B90000F931F93CF93DF93EC018A017C01E60E04
:104BA000F71ECE018796CE15DF0529F4CDB7DEB707
:104BB000E6E00C94D034C11523E0D20740F40E9403
:104BC0000E35F80180830F5F1F4F2196EACFF80161
:104BD0001082F9CFB0E0A0E0E0EFF5E20C94B2343F
:104BE0007C016A018C01060F171FEC01CE0187962C
:104BF000C017D10729F4CDB7DEB7E8E00C94CE3466
:104C0000C11523E0D20740F4FE01EE19FF09EC0DB7
:104C1000FD1D60810E9422352196E8CF462F843009
:104C200040F47C3030F4683020F4672F0E94502527
:104C3000089590E080E0089580E1089589ED90E086
:104C40000895EF92FF920F931F93CF93DF93EC01A0
:104C50008A017C01E60EF71ECE01895D9C4FCE15C0
:104C6000DF0529F4CDB7DEB7E6E00C94D034C93DBA
:104C7000D10540F40E940E35F80180830F5F1F4F6D
:104C80002196EACFF8011082F9CFB0E0A0E0EBE482
:104C9000F6E20C94B2347C016A018C01060F171FF6
:104CA000EC01CE01895D9C4FC017D10729F4CDB727
:104CB000DEB7E8E00C94CE34C93DD10540F4FE01E6
:104CC000EE19FF09EC0DFD1D60810E942235219631
:104CD000E8CFCF93DF93C7E2D3E060E0CE010E943C
:104CE00022352196C11584E0D807B9F7DF91CF911D
:104CF0000895A4E0B0E0EFE7F6E20C94B334F82EA8
:104D00008FE08F1548F18FEF93E00E940E358111EF
:104D100023C007E213E0F11023C019821A821B821C
:104D20001C82DD24D39478018FEFE81AF80AC801B9
:104D30000E940E3589831A82882371F09FEF980FA5
:104D40009330D8F48A83D9820E5F1F4FC7010E9427
:104D50000E358B83811112C02496E7E00C94CF347A
:104D6000011584E01807C1F3C8010E940E358111B6
:104D700001C0FA940F5F1F4FCECF8701CE0101967D
:104D80000E941E07D0CF8FE891E00197F1F700C095
:104D9000000008950E94F50408959091160181E0A5
:104DA00098279093C502282F291B2093C402909125
:104DB00016018093C602909116018093C302249835
:104DC0002C9A25982D9A0E94C3262091C60249EC60
:104DD00052E0FA018E2F841B821708F0089583B1E8
:104DE000829581701D9904C090E0892B8193F2CF48
:104DF00092E0FBCFCF92DF92FF920F931F93CF935E
:104E0000DF9310E000E084E0C82ED12C8091C60230
:104E1000181748F0802FDF91CF911F910F91FF90CD
:104E2000DF90CF900895C12FD0E0E3B1E295E1701B
:104E30001D9944C080E08E2BDE01A753BD4FEC913D
:104E40009E2F93709817C1F1EE0FEE0FE82BEC93A5
:104E5000F090C502F10EEF70F0E0E656FE4FC95338
:104E6000DD4F80819881890F888320E0843064F051
:104E7000EF2DF0E0EF53FD4F80818F5F808360E086
:104E80008F2D0E94CA2621E088818D3F64F4EF2D8A
:104E9000F0E0EF53FD4F80818150808361E08F2DE2
:104EA0000E94CA2621E08881082E000C990BB601C9
:104EB0000E9434348883022B1F5FA8CF82E0BBCFCF
:104EC0004091C60250E06091C50270E06F537D4F83
:104ED0000E9405350895B0E0A0E0E1E7F7E20C9408
:104EE000B2346C01D0E080E09091C302D91740F059
:104EF00081110E940C11CDB7DEB7E8E00C94CE34DE
:104F0000F090C402FD0E0F2D10E00F531D4FF6015F
:104F1000ED0FF11DC081F8019081C91BEC2E1E140C
:104F200044F09C2FC7FD90E0C91BC1110DC0DF5F8D
:104F3000DBCFEA94F80180818F5F808360E08F2D62
:104F40000E94CA2681E0EBCFCF5FF80180818150BB
:104F5000808361E08F2D0E94CA2681E0E6CFCF9347
:104F6000DF93EB0186319C4511F50E94550F9A8124
:104F7000992399F08A7A91E009F490E09093CB021A
:104F8000811109C089E20E942D0F0E94960F80E0D6
:104F9000DF91CF91089585E3F6CF8091CB02811107
:104FA00004C089E20E94350FF0CF85E3FBCF81E09A
:104FB000EFCF0F931F93CF93DF93C42FD22FFC011A
:104FC00082818823C9F04093CE020E942E2C9093B8
:104FD000CD028093CC0280E28C0F883040F4C77001
:104FE00081E001C0880FCA95EAF70E94E108DF91CD
:104FF000CF911F910F9108951091CE02141332C0DA
:105000008091CC029091CD020E94462C883C910563
:1050100048F5C0E2CD0F1D17B9F080E2810F88304E
:1050200040F4177081E001C0880F1A95EAF70E94DA
:10503000E808C83048F481E09D2F977001C0880FC0
:105040009A95EAF70E94E108802F0E94D808C8309C
:1050500070F6D77081E001C0880FDA95EAF70E94F8
:10506000E808C5CF80E28C0F883008F6C77081E071
:1050700001C0880FCA95EAF7F2CF0F939C01CB01CC
:10508000233F4CE5340759F1A8F4283DFCE53F07E0
:1050900001F1293D4CE53407D1F1273D3C4591F420
:1050A00006E221EE41EE67ED7CE50E94D92780E023
:1050B0000F910895253FFCE53F07E9F0B0F0263F4A
:1050C0003C45F9F0FC018281882339F11092CE022F
:1050D000EFCF07E225EE45EE68ED7CE5E6CF06E290
:1050E00021EE40EE63EF7CE5E0CF07E225EE44EEF3
:1050F00064EF7CE5DACF06E221EE42EE65EF7CE577
:10510000D4CF07E225EE46EE66EF7CE5CECF08E28F
:1051100021E045EE69ED7CE5C8CF81E0C9CF8EE1A5
:105120004A9B02C08150E1F74A9BFECF08955A98EE
:1051300080E28A95F1F75A9A0895FC013BE03A958E
:10514000F1F798E020E080E031E040E14A95F1F7A6
:10515000880F4A9B02C08160232742E04A95F1F7FD
:10516000000040E14A95F1F7915079F790E19A9566
:10517000F1F799B132E03A95F1F7000040E14A9534
:10518000F1F792FB992790F992272081920F908353
:105190000895A1E0B0E0EFECF8E20C94B434198289
:1051A0008C017C01E60EF11C0E151F0541F481E017
:1051B0009981911180E02196E6E00C94D0340E9410
:1051C0008F28CE0101960E949D28F80181938F01BE
:1051D000EBCF529A5A9A089552985A9AEA9AE9E667
:1051E000F0E080818F7C808308956150770B91E09F
:1051F00001C0990F6A95EAF720E031E0911108C0EB
:10520000222391F05A9A80E28A95F1F75A980895EC
:10521000492F482339F05A9A232740E24A95F1F75B
:105220009695ECCF5A98F9CF5A98EDCFFF920F93FD
:105230001F93CF93DF93EC018C01060F111DC01754
:10524000D10729F4CDB7DEB7E5E00C94D134F9905D
:105250000E94972868E08F2D0E94F528F0CF1F92BA
:105260000F920FB60F9211240F931F932F933F931A
:105270004F935F936F937F938F939F93AF93BF935E
:10528000EF93FF93CF93DF930F92CDB7DEB71982E1
:105290000E948F28CE0101960E949D28082F069516
:1052A00006950695282F22952570902F9570290F29
:1052B000922F937026952695920F98279770898143
:1052C000982B09F05CC0063008F059C080E18A953F
:1052D000F1F75A9A529A82E08A95F1F700C05A98EB
:1052E00088E0089F80011124D801A95EBE4F169660
:1052F000ED91FC9117973097A9F06091730170912F
:10530000740114962D913C911597260F371F119615
:105310008D919C911297680F791F13964C9113975A
:105320008C910995F801E95EFE4F6381662351F087
:10533000209173013091740184819581820F931FB4
:105340000E9416290E94972880E18A95F1F75A98C1
:1053500052985A9A80E18A95F1F7F801E95EFE4F7A
:105360006081662351F02091730130917401818135
:105370009281820F931F0E94C9280E948F280F904C
:10538000DF91CF91FF91EF91BF91AF919F918F915D
:105390007F916F915F914F913F912F911F910F914D
:1053A0000F900FBE0F901F9018950F931F93CF93E0
:1053B000DF93EC0106970CF04CC0F894529A5A987F
:1053C00085E08A95F1F700009C2F969595708C2FBB
:1053D0008570980F892F83709695969523E0CC0F52
:1053E000DD1F2A95E1F7980F8E01092B0E9497285F
:1053F00000C068E0802F0E94F52880E18A95F1F7CF
:1054000052985A9A4A9B1EC087E090E04A991CC065
:10541000FE01E95EFE4F63816623F9F0209173017E
:105420003091740184819581820F931F0E94C92855
:10543000811113C0529A5A9A7894DF91CF911F919B
:105440000F91089500C0DECF019729F4529A5A9A1D
:10545000789480E0F2CF00C0D9CF0E948F2880E2FC
:105460008A95F1F75A98529A80E18A95F1F7C95EC8
:10547000DE4F6881662351F02091730130917401F1
:1054800089819A81820F931F0E9416290E94972872
:10549000789481E0D2CF9093BB018093BA010895B4
:1054A0009093D5028093D40208950E94B015811183
:1054B00003C08091CF020895E091D402F091D5020B
:1054C000309729F00190F081E02D0995089580E052
:1054D0000895E091D402F091D502309799F020918F
:1054E0006401222359F02091FE0227FF07C0DC014E
:1054F0002C9111962C93119726E02C930280F38126
:10550000E02D09950895E091D402F091D5023097ED
:1055100039F022E0DC012C930480F581E02D09951F
:1055200008952091D2023091D3022817390771F0E3
:105530009093D3028093D202E091D402F091D502ED
:10554000309721F00680F781E02D0995089520918C
:10555000D0023091D1022817390771F09093D1020F
:105560008093D002E091D402F091D502309721F0DF
:105570000084F185E02D09950895FC013296809113
:105580006401882321F08091FE029EE187FF96E06E
:1055900080E0915008F4089521912223D1F38F5F88
:1055A000F8CF662301F1209164012223F1F02091CC
:1055B000FE0227FF1AC0462F4695469546954E3166
:1055C00090F4677021E030E002C0220F331F6A952B
:1055D000E2F7840F911DFC01828190E0282339239A
:1055E00081E0232B69F480E00895FC01329608964F
:1055F0002191261721F0E817F907D1F7F4CF81E0C0
:1056000008959C01FC0132969FEF80E0419146177E
:1056100051F09F3F19F4411101C0982F8F5F8630E0
:10562000A9F79F3F09F40895290F311D97FD3A9579
:10563000F90162830895FC013296089621912613A0
:1056400003C0DF0111971C92E817F907B9F7089515
:10565000E62FE695E695E695EE3168F4E80FF92F2A
:10566000F11D677021E030E001C0220F6A95EAF772
:105670008281822B82830895E62FE695E695E69552
:10568000EE3170F4E80FF92FF11D677021E030E082
:1056900001C0220F6A95EAF7209582812823228390
:1056A000089520916401222339F02091FE0227FF02
:1056B00003C00E94282B08950E94012B0895209179
:1056C0006401222339F02091FE0227FF03C00E94CB
:1056D0003C2B08950E941B2B0895FC01329680916B
:1056E0006401882351F08091FE0287FF06C08EE19D
:1056F000DF011D928A95E9F7089586E0F9CF46E02B
:1057000050E00E94F83421E0892B09F420E0822F38
:10571000089508950E94892B0895811106C081E0A3
:105720008093D6020E948A2B089582E0F9CF83E00D
:105730008093D6020E948A2B08950E948D2B089593
:1057400081E08093D6020E948A2B08950E94A02BAC
:105750000895089508950E94AA2B08950895089524
:105760000E94A92B0895CF930E94AE2B0E9433155F
:105770000E94AF2BC0E08C2F0E940F14811105C036
:10578000CF5FCC30C1F7CF91089581E0FCCF85B7D2
:10579000806885BF85B7806885BF08951F921FB652
:1057A0001F9211248F939F93AF93BF938091D70241
:1057B000811113C08091210490912204A0912304AF
:1057C000B09124044196A11DB11D809321049093B2
:1057D0002204A0932304B0932404BF91AF919F911E
:1057E0008F911F901FBE1F901895809129048430BF
:1057F00031F10E944D061092D70288E190E020E43A
:105800000FB6F894A895809360000FBE20936000B7
:1058100083B7817F846083BF83B7816083BF7894BF
:10582000889583B78E7F83BF0FB6F894A895809133
:105830006000886180936000109260000FBE089540
:105840000E94110B0E945406089582E084BD93E0EB
:1058500095BD9AEF97BD80936E0008952FB7F89489
:105860008091210490912204A0912304B0912404FA
:105870002FBF08952FB7F8946091210470912204EE
:1058800080912304909124042FBF08959C014FB769
:10589000F8948091210490912204A0912304B09166
:1058A00024044FBF821B930B0895CF92DF92EF9297
:1058B000FF922FB7F894C0902104D0902204E0907A
:1058C0002304F09024042FBFA7019601261B370B59
:1058D000480B590BCA01B901FF90EF90DF90CF90B0
:1058E000089578941F921FB61F9211248F939F934F
:1058F000AF93BF938091210490912204A09123043F
:10590000B09124040196A11DB11D809321049093B0
:105910002204A0932304B0932404BF91AF919F91DC
:105920008F911F901FBE1F90189587E797E7909360
:1059300001088093000888E19AE00FB6F894A895D2
:10594000809360000FBE90936000FFCF88E19AE0E3
:105950000FB6F894A895809360000FBE90936000F6
:10596000FFCF8091F8020895089508959C0184E086
:105970008093E9009FEF8091E800915085FD06C07B
:1059800085ED8A95F1F700009111F5CF8091E8003F
:1059900085FF0CC050E040E066E070E0C9010E9465
:1059A0002A2F8091E8008E778093E8000895CF93A6
:1059B000DF93EC01809164018823B1F18091FE02B4
:1059C00087FF32C060E284E08093E9008FEF90911E
:1059D000E800815095FD06C095ED9A95F1F700001D
:1059E0008111F5CF8091E80085FF1BC08091640193
:1059F00070E050E040E0811104C050E040E068E019
:105A000070E0CE010E942A2F8091E8008E7780936B
:105A1000E80080E2FE01A8EDB2E001900D928A95C7
:105A2000E1F7DF91CF91089568E081E0CDCF08954F
:105A3000CF93FC01603221F580912904843001F577
:105A4000C091E900CF702091EC00922F917020FD61
:105A500090E8C92B82E08093E9008091E80080FF04
:105A60000CC050E040E060E270E0CF010E942A2FBD
:105A70008091E8008E778093E800CF70C093E900B2
:105A8000CF91089580912804811109C00E940931A5
:105A90000E9466318091E20084608093E200089564
:105AA0001092280408950E94A02B08956091250467
:105AB00081E0611101C080E00E94972B08959091D0
:105AC000290481E0943009F080E0609125040E946F
:105AD0009D2B089542E061EC81E00E94853042E216
